{
	"DISNEY/ERC20.sol": {
		"ERC20Basic": {
			"abi": [
				{
					"inputs": [
						{
							"internalType": "uint256",
							"name": "initialSupply",
							"type": "uint256"
						}
					],
					"stateMutability": "nonpayable",
					"type": "constructor"
				},
				{
					"anonymous": false,
					"inputs": [
						{
							"indexed": true,
							"internalType": "address",
							"name": "owner",
							"type": "address"
						},
						{
							"indexed": true,
							"internalType": "address",
							"name": "spender",
							"type": "address"
						},
						{
							"indexed": false,
							"internalType": "uint256",
							"name": "tokens",
							"type": "uint256"
						}
					],
					"name": "Approval",
					"type": "event"
				},
				{
					"anonymous": false,
					"inputs": [
						{
							"indexed": true,
							"internalType": "address",
							"name": "from",
							"type": "address"
						},
						{
							"indexed": true,
							"internalType": "address",
							"name": "to",
							"type": "address"
						},
						{
							"indexed": false,
							"internalType": "uint256",
							"name": "tokens",
							"type": "uint256"
						}
					],
					"name": "Transfer",
					"type": "event"
				},
				{
					"inputs": [
						{
							"internalType": "address",
							"name": "owner",
							"type": "address"
						},
						{
							"internalType": "address",
							"name": "delegate",
							"type": "address"
						}
					],
					"name": "allowance",
					"outputs": [
						{
							"internalType": "uint256",
							"name": "",
							"type": "uint256"
						}
					],
					"stateMutability": "view",
					"type": "function"
				},
				{
					"inputs": [
						{
							"internalType": "address",
							"name": "delegate",
							"type": "address"
						},
						{
							"internalType": "uint256",
							"name": "numTokens",
							"type": "uint256"
						}
					],
					"name": "approve",
					"outputs": [
						{
							"internalType": "bool",
							"name": "",
							"type": "bool"
						}
					],
					"stateMutability": "nonpayable",
					"type": "function"
				},
				{
					"inputs": [
						{
							"internalType": "address",
							"name": "tokenOwner",
							"type": "address"
						}
					],
					"name": "balanceOf",
					"outputs": [
						{
							"internalType": "uint256",
							"name": "",
							"type": "uint256"
						}
					],
					"stateMutability": "view",
					"type": "function"
				},
				{
					"inputs": [],
					"name": "decimals",
					"outputs": [
						{
							"internalType": "uint8",
							"name": "",
							"type": "uint8"
						}
					],
					"stateMutability": "view",
					"type": "function"
				},
				{
					"inputs": [
						{
							"internalType": "uint256",
							"name": "newTokensAmount",
							"type": "uint256"
						}
					],
					"name": "increaseTotalSupply",
					"outputs": [],
					"stateMutability": "nonpayable",
					"type": "function"
				},
				{
					"inputs": [],
					"name": "name",
					"outputs": [
						{
							"internalType": "string",
							"name": "",
							"type": "string"
						}
					],
					"stateMutability": "view",
					"type": "function"
				},
				{
					"inputs": [],
					"name": "symbol",
					"outputs": [
						{
							"internalType": "string",
							"name": "",
							"type": "string"
						}
					],
					"stateMutability": "view",
					"type": "function"
				},
				{
					"inputs": [],
					"name": "totalSupply",
					"outputs": [
						{
							"internalType": "uint256",
							"name": "",
							"type": "uint256"
						}
					],
					"stateMutability": "view",
					"type": "function"
				},
				{
					"inputs": [
						{
							"internalType": "address",
							"name": "recipient",
							"type": "address"
						},
						{
							"internalType": "uint256",
							"name": "numTokens",
							"type": "uint256"
						}
					],
					"name": "transfer",
					"outputs": [
						{
							"internalType": "bool",
							"name": "",
							"type": "bool"
						}
					],
					"stateMutability": "nonpayable",
					"type": "function"
				},
				{
					"inputs": [
						{
							"internalType": "address",
							"name": "owner",
							"type": "address"
						},
						{
							"internalType": "address",
							"name": "buyer",
							"type": "address"
						},
						{
							"internalType": "uint256",
							"name": "numTokens",
							"type": "uint256"
						}
					],
					"name": "transferFrom",
					"outputs": [
						{
							"internalType": "bool",
							"name": "",
							"type": "bool"
						}
					],
					"stateMutability": "nonpayable",
					"type": "function"
				}
			],
			"devdoc": {
				"methods": {}
			},
			"evm": {
				"assembly": "    /* \"DISNEY/ERC20.sol\":840:3277  contract ERC20Basic is IERC20{\r... */\n  mstore(0x40, 0x80)\n    /* \"DISNEY/ERC20.sol\":1359:1502  constructor (uint256 initialSupply) public {\r... */\n  callvalue\n    /* \"--CODEGEN--\":5:14   */\n  dup1\n    /* \"--CODEGEN--\":2:4   */\n  iszero\n  tag_1\n  jumpi\n    /* \"--CODEGEN--\":27:28   */\n  0x00\n    /* \"--CODEGEN--\":24:25   */\n  dup1\n    /* \"--CODEGEN--\":17:29   */\n  revert\n    /* \"--CODEGEN--\":2:4   */\ntag_1:\n    /* \"DISNEY/ERC20.sol\":1359:1502  constructor (uint256 initialSupply) public {\r... */\n  pop\n  mload(0x40)\n  sub(codesize, bytecodeSize)\n  dup1\n  bytecodeSize\n  dup4\n  codecopy\n  dup2\n  dup2\n  add\n  0x40\n  mstore\n  dup2\n  add\n  swap1\n  tag_2\n  swap2\n  swap1\n  jump(tag_3)\ntag_2:\n    /* \"DISNEY/ERC20.sol\":1430:1443  initialSupply */\n  dup1\n    /* \"DISNEY/ERC20.sol\":1415:1427  totalSupply_ */\n  0x02\n    /* \"DISNEY/ERC20.sol\":1415:1443  totalSupply_ = initialSupply */\n  dup2\n  swap1\n  sstore\n  pop\n    /* \"DISNEY/ERC20.sol\":1480:1492  totalSupply_ */\n  sload(0x02)\n    /* \"DISNEY/ERC20.sol\":1457:1465  balances */\n  0x00\n    /* \"DISNEY/ERC20.sol\":1457:1477  balances[msg.sender] */\n  dup1\n    /* \"DISNEY/ERC20.sol\":1466:1476  msg.sender */\n  caller\n    /* \"DISNEY/ERC20.sol\":1457:1477  balances[msg.sender] */\n  0xffffffffffffffffffffffffffffffffffffffff\n  and\n  0xffffffffffffffffffffffffffffffffffffffff\n  and\n  dup2\n  mstore\n  0x20\n  add\n  swap1\n  dup2\n  mstore\n  0x20\n  add\n  0x00\n  keccak256\n    /* \"DISNEY/ERC20.sol\":1457:1492  balances[msg.sender] = totalSupply_ */\n  dup2\n  swap1\n  sstore\n  pop\n    /* \"DISNEY/ERC20.sol\":1359:1502  constructor (uint256 initialSupply) public {\r... */\n  pop\n    /* \"DISNEY/ERC20.sol\":840:3277  contract ERC20Basic is IERC20{\r... */\n  jump(tag_6)\n    /* \"--CODEGEN--\":5:139   */\ntag_8:\n  0x00\n    /* \"--CODEGEN--\":89:95   */\n  dup2\n    /* \"--CODEGEN--\":83:96   */\n  mload\n    /* \"--CODEGEN--\":74:96   */\n  swap1\n  pop\n    /* \"--CODEGEN--\":101:134   */\n  tag_10\n    /* \"--CODEGEN--\":128:133   */\n  dup2\n    /* \"--CODEGEN--\":101:134   */\n  jump(tag_11)\ntag_10:\n    /* \"--CODEGEN--\":68:139   */\n  swap3\n  swap2\n  pop\n  pop\n  jump\n    /* \"--CODEGEN--\":146:409   */\ntag_3:\n  0x00\n    /* \"--CODEGEN--\":261:263   */\n  0x20\n    /* \"--CODEGEN--\":249:258   */\n  dup3\n    /* \"--CODEGEN--\":240:247   */\n  dup5\n    /* \"--CODEGEN--\":236:259   */\n  sub\n    /* \"--CODEGEN--\":232:264   */\n  slt\n    /* \"--CODEGEN--\":229:231   */\n  iszero\n  tag_13\n  jumpi\n    /* \"--CODEGEN--\":277:278   */\n  0x00\n    /* \"--CODEGEN--\":274:275   */\n  dup1\n    /* \"--CODEGEN--\":267:279   */\n  revert\n    /* \"--CODEGEN--\":229:231   */\ntag_13:\n    /* \"--CODEGEN--\":312:313   */\n  0x00\n    /* \"--CODEGEN--\":329:393   */\n  tag_14\n    /* \"--CODEGEN--\":385:392   */\n  dup5\n    /* \"--CODEGEN--\":376:382   */\n  dup3\n    /* \"--CODEGEN--\":365:374   */\n  dup6\n    /* \"--CODEGEN--\":361:383   */\n  add\n    /* \"--CODEGEN--\":329:393   */\n  jump(tag_8)\ntag_14:\n    /* \"--CODEGEN--\":319:393   */\n  swap2\n  pop\n    /* \"--CODEGEN--\":291:399   */\n  pop\n    /* \"--CODEGEN--\":223:409   */\n  swap3\n  swap2\n  pop\n  pop\n  jump\n    /* \"--CODEGEN--\":416:488   */\ntag_15:\n  0x00\n    /* \"--CODEGEN--\":478:483   */\n  dup2\n    /* \"--CODEGEN--\":467:483   */\n  swap1\n  pop\n    /* \"--CODEGEN--\":461:488   */\n  swap2\n  swap1\n  pop\n  jump\n    /* \"--CODEGEN--\":495:612   */\ntag_11:\n    /* \"--CODEGEN--\":564:588   */\n  tag_18\n    /* \"--CODEGEN--\":582:587   */\n  dup2\n    /* \"--CODEGEN--\":564:588   */\n  jump(tag_15)\ntag_18:\n    /* \"--CODEGEN--\":557:562   */\n  dup2\n    /* \"--CODEGEN--\":554:589   */\n  eq\n    /* \"--CODEGEN--\":544:546   */\n  tag_19\n  jumpi\n    /* \"--CODEGEN--\":603:604   */\n  0x00\n    /* \"--CODEGEN--\":600:601   */\n  dup1\n    /* \"--CODEGEN--\":593:605   */\n  revert\n    /* \"--CODEGEN--\":544:546   */\ntag_19:\n    /* \"--CODEGEN--\":538:612   */\n  pop\n  jump\n    /* \"DISNEY/ERC20.sol\":840:3277  contract ERC20Basic is IERC20{\r... */\ntag_6:\n  dataSize(sub_0)\n  dup1\n  dataOffset(sub_0)\n  0x00\n  codecopy\n  0x00\n  return\nstop\n\nsub_0: assembly {\n        /* \"DISNEY/ERC20.sol\":840:3277  contract ERC20Basic is IERC20{\r... */\n      mstore(0x40, 0x80)\n      callvalue\n        /* \"--CODEGEN--\":5:14   */\n      dup1\n        /* \"--CODEGEN--\":2:4   */\n      iszero\n      tag_1\n      jumpi\n        /* \"--CODEGEN--\":27:28   */\n      0x00\n        /* \"--CODEGEN--\":24:25   */\n      dup1\n        /* \"--CODEGEN--\":17:29   */\n      revert\n        /* \"--CODEGEN--\":2:4   */\n    tag_1:\n        /* \"DISNEY/ERC20.sol\":840:3277  contract ERC20Basic is IERC20{\r... */\n      pop\n      jumpi(tag_2, lt(calldatasize, 0x04))\n      shr(0xe0, calldataload(0x00))\n      dup1\n      0x313ce567\n      gt\n      tag_13\n      jumpi\n      dup1\n      0x313ce567\n      eq\n      tag_8\n      jumpi\n      dup1\n      0x70a08231\n      eq\n      tag_9\n      jumpi\n      dup1\n      0x95d89b41\n      eq\n      tag_10\n      jumpi\n      dup1\n      0xa9059cbb\n      eq\n      tag_11\n      jumpi\n      dup1\n      0xdd62ed3e\n      eq\n      tag_12\n      jumpi\n      jump(tag_2)\n    tag_13:\n      dup1\n      0x06fdde03\n      eq\n      tag_3\n      jumpi\n      dup1\n      0x095ea7b3\n      eq\n      tag_4\n      jumpi\n      dup1\n      0x18160ddd\n      eq\n      tag_5\n      jumpi\n      dup1\n      0x1d43cc98\n      eq\n      tag_6\n      jumpi\n      dup1\n      0x23b872dd\n      eq\n      tag_7\n      jumpi\n    tag_2:\n        /* \"--CODEGEN--\":12:13   */\n      0x00\n        /* \"--CODEGEN--\":9:10   */\n      dup1\n        /* \"--CODEGEN--\":2:14   */\n      revert\n        /* \"DISNEY/ERC20.sol\":878:925  string public constant name = \"ERC20PruebaCoin\" */\n    tag_3:\n      tag_14\n      tag_15\n      jump\t// in\n    tag_14:\n      mload(0x40)\n      tag_16\n      swap2\n      swap1\n      jump(tag_17)\n    tag_16:\n      mload(0x40)\n      dup1\n      swap2\n      sub\n      swap1\n      return\n        /* \"DISNEY/ERC20.sol\":2484:2715  function approve(address delegate, uint256 numTokens) public override returns (bool){\r... */\n    tag_4:\n      tag_18\n      0x04\n      dup1\n      calldatasize\n      sub\n      dup2\n      add\n      swap1\n      tag_19\n      swap2\n      swap1\n      jump(tag_20)\n    tag_19:\n      tag_21\n      jump\t// in\n    tag_18:\n      mload(0x40)\n      tag_22\n      swap2\n      swap1\n      jump(tag_23)\n    tag_22:\n      mload(0x40)\n      dup1\n      swap2\n      sub\n      swap1\n      return\n        /* \"DISNEY/ERC20.sol\":1516:1619  function totalSupply() public override view returns (uint256){\r... */\n    tag_5:\n      tag_24\n      tag_25\n      jump\t// in\n    tag_24:\n      mload(0x40)\n      tag_26\n      swap2\n      swap1\n      jump(tag_27)\n    tag_26:\n      mload(0x40)\n      dup1\n      swap2\n      sub\n      swap1\n      return\n        /* \"DISNEY/ERC20.sol\":1627:1791  function increaseTotalSupply(uint newTokensAmount) public {\r... */\n    tag_6:\n      tag_28\n      0x04\n      dup1\n      calldatasize\n      sub\n      dup2\n      add\n      swap1\n      tag_29\n      swap2\n      swap1\n      jump(tag_30)\n    tag_29:\n      tag_31\n      jump\t// in\n    tag_28:\n      stop\n        /* \"DISNEY/ERC20.sol\":2725:3272  function transferFrom(address owner, address buyer, uint256 numTokens) public override returns (bool){\r... */\n    tag_7:\n      tag_32\n      0x04\n      dup1\n      calldatasize\n      sub\n      dup2\n      add\n      swap1\n      tag_33\n      swap2\n      swap1\n      jump(tag_34)\n    tag_33:\n      tag_35\n      jump\t// in\n    tag_32:\n      mload(0x40)\n      tag_36\n      swap2\n      swap1\n      jump(tag_23)\n    tag_36:\n      mload(0x40)\n      dup1\n      swap2\n      sub\n      swap1\n      return\n        /* \"DISNEY/ERC20.sol\":975:1009  uint8 public constant decimals = 2 */\n    tag_8:\n      tag_37\n      tag_38\n      jump\t// in\n    tag_37:\n      mload(0x40)\n      tag_39\n      swap2\n      swap1\n      jump(tag_40)\n    tag_39:\n      mload(0x40)\n      dup1\n      swap2\n      sub\n      swap1\n      return\n        /* \"DISNEY/ERC20.sol\":1799:1926  function balanceOf(address tokenOwner) public override view returns (uint256){\r... */\n    tag_9:\n      tag_41\n      0x04\n      dup1\n      calldatasize\n      sub\n      dup2\n      add\n      swap1\n      tag_42\n      swap2\n      swap1\n      jump(tag_43)\n    tag_42:\n      tag_44\n      jump\t// in\n    tag_41:\n      mload(0x40)\n      tag_45\n      swap2\n      swap1\n      jump(tag_27)\n    tag_45:\n      mload(0x40)\n      dup1\n      swap2\n      sub\n      swap1\n      return\n        /* \"DISNEY/ERC20.sol\":932:968  string public constant symbol = \"PC\" */\n    tag_10:\n      tag_46\n      tag_47\n      jump\t// in\n    tag_46:\n      mload(0x40)\n      tag_48\n      swap2\n      swap1\n      jump(tag_17)\n    tag_48:\n      mload(0x40)\n      dup1\n      swap2\n      sub\n      swap1\n      return\n        /* \"DISNEY/ERC20.sol\":2091:2476  function transfer(address recipient, uint256 numTokens) public override returns (bool){\r... */\n    tag_11:\n      tag_49\n      0x04\n      dup1\n      calldatasize\n      sub\n      dup2\n      add\n      swap1\n      tag_50\n      swap2\n      swap1\n      jump(tag_20)\n    tag_50:\n      tag_51\n      jump\t// in\n    tag_49:\n      mload(0x40)\n      tag_52\n      swap2\n      swap1\n      jump(tag_23)\n    tag_52:\n      mload(0x40)\n      dup1\n      swap2\n      sub\n      swap1\n      return\n        /* \"DISNEY/ERC20.sol\":1935:2083  function allowance(address owner, address delegate) public override view returns (uint256){\r... */\n    tag_12:\n      tag_53\n      0x04\n      dup1\n      calldatasize\n      sub\n      dup2\n      add\n      swap1\n      tag_54\n      swap2\n      swap1\n      jump(tag_55)\n    tag_54:\n      tag_56\n      jump\t// in\n    tag_53:\n      mload(0x40)\n      tag_57\n      swap2\n      swap1\n      jump(tag_27)\n    tag_57:\n      mload(0x40)\n      dup1\n      swap2\n      sub\n      swap1\n      return\n        /* \"DISNEY/ERC20.sol\":878:925  string public constant name = \"ERC20PruebaCoin\" */\n    tag_15:\n      mload(0x40)\n      dup1\n      0x40\n      add\n      0x40\n      mstore\n      dup1\n      0x0f\n      dup2\n      mstore\n      0x20\n      add\n      0x4552433230507275656261436f696e0000000000000000000000000000000000\n      dup2\n      mstore\n      pop\n      dup2\n      jump\t// out\n        /* \"DISNEY/ERC20.sol\":2484:2715  function approve(address delegate, uint256 numTokens) public override returns (bool){\r... */\n    tag_21:\n        /* \"DISNEY/ERC20.sol\":2563:2567  bool */\n      0x00\n        /* \"DISNEY/ERC20.sol\":2613:2622  numTokens */\n      dup2\n        /* \"DISNEY/ERC20.sol\":2581:2588  allowed */\n      0x01\n        /* \"DISNEY/ERC20.sol\":2581:2600  allowed[msg.sender] */\n      0x00\n        /* \"DISNEY/ERC20.sol\":2589:2599  msg.sender */\n      caller\n        /* \"DISNEY/ERC20.sol\":2581:2600  allowed[msg.sender] */\n      0xffffffffffffffffffffffffffffffffffffffff\n      and\n      0xffffffffffffffffffffffffffffffffffffffff\n      and\n      dup2\n      mstore\n      0x20\n      add\n      swap1\n      dup2\n      mstore\n      0x20\n      add\n      0x00\n      keccak256\n        /* \"DISNEY/ERC20.sol\":2581:2610  allowed[msg.sender][delegate] */\n      0x00\n        /* \"DISNEY/ERC20.sol\":2601:2609  delegate */\n      dup6\n        /* \"DISNEY/ERC20.sol\":2581:2610  allowed[msg.sender][delegate] */\n      0xffffffffffffffffffffffffffffffffffffffff\n      and\n      0xffffffffffffffffffffffffffffffffffffffff\n      and\n      dup2\n      mstore\n      0x20\n      add\n      swap1\n      dup2\n      mstore\n      0x20\n      add\n      0x00\n      keccak256\n        /* \"DISNEY/ERC20.sol\":2581:2622  allowed[msg.sender][delegate] = numTokens */\n      dup2\n      swap1\n      sstore\n      pop\n        /* \"DISNEY/ERC20.sol\":2661:2669  delegate */\n      dup3\n        /* \"DISNEY/ERC20.sol\":2640:2681  Approval(msg.sender, delegate, numTokens) */\n      0xffffffffffffffffffffffffffffffffffffffff\n      and\n        /* \"DISNEY/ERC20.sol\":2649:2659  msg.sender */\n      caller\n        /* \"DISNEY/ERC20.sol\":2640:2681  Approval(msg.sender, delegate, numTokens) */\n      0xffffffffffffffffffffffffffffffffffffffff\n      and\n      0x8c5be1e5ebec7d5bd14f71427d1e84f3dd0314c0f7b2291e5b200ac8c7c3b925\n        /* \"DISNEY/ERC20.sol\":2671:2680  numTokens */\n      dup5\n        /* \"DISNEY/ERC20.sol\":2640:2681  Approval(msg.sender, delegate, numTokens) */\n      mload(0x40)\n      tag_59\n      swap2\n      swap1\n      jump(tag_27)\n    tag_59:\n      mload(0x40)\n      dup1\n      swap2\n      sub\n      swap1\n      log3\n        /* \"DISNEY/ERC20.sol\":2701:2705  true */\n      0x01\n        /* \"DISNEY/ERC20.sol\":2694:2705  return true */\n      swap1\n      pop\n        /* \"DISNEY/ERC20.sol\":2484:2715  function approve(address delegate, uint256 numTokens) public override returns (bool){\r... */\n      swap3\n      swap2\n      pop\n      pop\n      jump\t// out\n        /* \"DISNEY/ERC20.sol\":1516:1619  function totalSupply() public override view returns (uint256){\r... */\n    tag_25:\n        /* \"DISNEY/ERC20.sol\":1569:1576  uint256 */\n      0x00\n        /* \"DISNEY/ERC20.sol\":1597:1609  totalSupply_ */\n      sload(0x02)\n        /* \"DISNEY/ERC20.sol\":1590:1609  return totalSupply_ */\n      swap1\n      pop\n        /* \"DISNEY/ERC20.sol\":1516:1619  function totalSupply() public override view returns (uint256){\r... */\n      swap1\n      jump\t// out\n        /* \"DISNEY/ERC20.sol\":1627:1791  function increaseTotalSupply(uint newTokensAmount) public {\r... */\n    tag_31:\n        /* \"DISNEY/ERC20.sol\":1714:1729  newTokensAmount */\n      dup1\n        /* \"DISNEY/ERC20.sol\":1698:1710  totalSupply_ */\n      0x02\n      0x00\n        /* \"DISNEY/ERC20.sol\":1698:1729  totalSupply_ += newTokensAmount */\n      dup3\n      dup3\n      sload\n      add\n      swap3\n      pop\n      pop\n      dup2\n      swap1\n      sstore\n      pop\n        /* \"DISNEY/ERC20.sol\":1766:1781  newTokensAmount */\n      dup1\n        /* \"DISNEY/ERC20.sol\":1742:1750  balances */\n      0x00\n        /* \"DISNEY/ERC20.sol\":1742:1762  balances[msg.sender] */\n      dup1\n        /* \"DISNEY/ERC20.sol\":1751:1761  msg.sender */\n      caller\n        /* \"DISNEY/ERC20.sol\":1742:1762  balances[msg.sender] */\n      0xffffffffffffffffffffffffffffffffffffffff\n      and\n      0xffffffffffffffffffffffffffffffffffffffff\n      and\n      dup2\n      mstore\n      0x20\n      add\n      swap1\n      dup2\n      mstore\n      0x20\n      add\n      0x00\n      keccak256\n      0x00\n        /* \"DISNEY/ERC20.sol\":1742:1781  balances[msg.sender] += newTokensAmount */\n      dup3\n      dup3\n      sload\n      add\n      swap3\n      pop\n      pop\n      dup2\n      swap1\n      sstore\n      pop\n        /* \"DISNEY/ERC20.sol\":1627:1791  function increaseTotalSupply(uint newTokensAmount) public {\r... */\n      pop\n      jump\t// out\n        /* \"DISNEY/ERC20.sol\":2725:3272  function transferFrom(address owner, address buyer, uint256 numTokens) public override returns (bool){\r... */\n    tag_35:\n        /* \"DISNEY/ERC20.sol\":2821:2825  bool */\n      0x00\n        /* \"DISNEY/ERC20.sol\":2867:2875  balances */\n      dup1\n        /* \"DISNEY/ERC20.sol\":2867:2882  balances[owner] */\n      0x00\n        /* \"DISNEY/ERC20.sol\":2876:2881  owner */\n      dup6\n        /* \"DISNEY/ERC20.sol\":2867:2882  balances[owner] */\n      0xffffffffffffffffffffffffffffffffffffffff\n      and\n      0xffffffffffffffffffffffffffffffffffffffff\n      and\n      dup2\n      mstore\n      0x20\n      add\n      swap1\n      dup2\n      mstore\n      0x20\n      add\n      0x00\n      keccak256\n      sload\n        /* \"DISNEY/ERC20.sol\":2854:2863  numTokens */\n      dup3\n        /* \"DISNEY/ERC20.sol\":2854:2882  numTokens <= balances[owner] */\n      gt\n      iszero\n        /* \"DISNEY/ERC20.sol\":2846:2883  require(numTokens <= balances[owner]) */\n      tag_63\n      jumpi\n        /* \"--CODEGEN--\":12:13   */\n      0x00\n        /* \"--CODEGEN--\":9:10   */\n      dup1\n        /* \"--CODEGEN--\":2:14   */\n      revert\n        /* \"DISNEY/ERC20.sol\":2846:2883  require(numTokens <= balances[owner]) */\n    tag_63:\n        /* \"DISNEY/ERC20.sol\":2924:2931  allowed */\n      0x01\n        /* \"DISNEY/ERC20.sol\":2924:2938  allowed[owner] */\n      0x00\n        /* \"DISNEY/ERC20.sol\":2932:2937  owner */\n      dup6\n        /* \"DISNEY/ERC20.sol\":2924:2938  allowed[owner] */\n      0xffffffffffffffffffffffffffffffffffffffff\n      and\n      0xffffffffffffffffffffffffffffffffffffffff\n      and\n      dup2\n      mstore\n      0x20\n      add\n      swap1\n      dup2\n      mstore\n      0x20\n      add\n      0x00\n      keccak256\n        /* \"DISNEY/ERC20.sol\":2924:2950  allowed[owner][msg.sender] */\n      0x00\n        /* \"DISNEY/ERC20.sol\":2939:2949  msg.sender */\n      caller\n        /* \"DISNEY/ERC20.sol\":2924:2950  allowed[owner][msg.sender] */\n      0xffffffffffffffffffffffffffffffffffffffff\n      and\n      0xffffffffffffffffffffffffffffffffffffffff\n      and\n      dup2\n      mstore\n      0x20\n      add\n      swap1\n      dup2\n      mstore\n      0x20\n      add\n      0x00\n      keccak256\n      sload\n        /* \"DISNEY/ERC20.sol\":2911:2920  numTokens */\n      dup3\n        /* \"DISNEY/ERC20.sol\":2911:2950  numTokens <= allowed[owner][msg.sender] */\n      gt\n      iszero\n        /* \"DISNEY/ERC20.sol\":2903:2951  require(numTokens <= allowed[owner][msg.sender]) */\n      tag_64\n      jumpi\n        /* \"--CODEGEN--\":12:13   */\n      0x00\n        /* \"--CODEGEN--\":9:10   */\n      dup1\n        /* \"--CODEGEN--\":2:14   */\n      revert\n        /* \"DISNEY/ERC20.sol\":2903:2951  require(numTokens <= allowed[owner][msg.sender]) */\n    tag_64:\n        /* \"DISNEY/ERC20.sol\":2982:3012  balances[owner].sub(numTokens) */\n      tag_65\n        /* \"DISNEY/ERC20.sol\":3002:3011  numTokens */\n      dup3\n        /* \"DISNEY/ERC20.sol\":2982:2990  balances */\n      0x00\n        /* \"DISNEY/ERC20.sol\":2982:2997  balances[owner] */\n      dup1\n        /* \"DISNEY/ERC20.sol\":2991:2996  owner */\n      dup8\n        /* \"DISNEY/ERC20.sol\":2982:2997  balances[owner] */\n      0xffffffffffffffffffffffffffffffffffffffff\n      and\n      0xffffffffffffffffffffffffffffffffffffffff\n      and\n      dup2\n      mstore\n      0x20\n      add\n      swap1\n      dup2\n      mstore\n      0x20\n      add\n      0x00\n      keccak256\n      sload\n        /* \"DISNEY/ERC20.sol\":2982:3001  balances[owner].sub */\n      tag_66\n      swap1\n        /* \"DISNEY/ERC20.sol\":2982:3012  balances[owner].sub(numTokens) */\n      swap2\n      swap1\n      0xffffffff\n      and\n      jump\t// in\n    tag_65:\n        /* \"DISNEY/ERC20.sol\":2964:2972  balances */\n      0x00\n        /* \"DISNEY/ERC20.sol\":2964:2979  balances[owner] */\n      dup1\n        /* \"DISNEY/ERC20.sol\":2973:2978  owner */\n      dup7\n        /* \"DISNEY/ERC20.sol\":2964:2979  balances[owner] */\n      0xffffffffffffffffffffffffffffffffffffffff\n      and\n      0xffffffffffffffffffffffffffffffffffffffff\n      and\n      dup2\n      mstore\n      0x20\n      add\n      swap1\n      dup2\n      mstore\n      0x20\n      add\n      0x00\n      keccak256\n        /* \"DISNEY/ERC20.sol\":2964:3012  balances[owner] = balances[owner].sub(numTokens) */\n      dup2\n      swap1\n      sstore\n      pop\n        /* \"DISNEY/ERC20.sol\":3062:3103  allowed[owner][msg.sender].sub(numTokens) */\n      tag_67\n        /* \"DISNEY/ERC20.sol\":3093:3102  numTokens */\n      dup3\n        /* \"DISNEY/ERC20.sol\":3062:3069  allowed */\n      0x01\n        /* \"DISNEY/ERC20.sol\":3062:3076  allowed[owner] */\n      0x00\n        /* \"DISNEY/ERC20.sol\":3070:3075  owner */\n      dup8\n        /* \"DISNEY/ERC20.sol\":3062:3076  allowed[owner] */\n      0xffffffffffffffffffffffffffffffffffffffff\n      and\n      0xffffffffffffffffffffffffffffffffffffffff\n      and\n      dup2\n      mstore\n      0x20\n      add\n      swap1\n      dup2\n      mstore\n      0x20\n      add\n      0x00\n      keccak256\n        /* \"DISNEY/ERC20.sol\":3062:3088  allowed[owner][msg.sender] */\n      0x00\n        /* \"DISNEY/ERC20.sol\":3077:3087  msg.sender */\n      caller\n        /* \"DISNEY/ERC20.sol\":3062:3088  allowed[owner][msg.sender] */\n      0xffffffffffffffffffffffffffffffffffffffff\n      and\n      0xffffffffffffffffffffffffffffffffffffffff\n      and\n      dup2\n      mstore\n      0x20\n      add\n      swap1\n      dup2\n      mstore\n      0x20\n      add\n      0x00\n      keccak256\n      sload\n        /* \"DISNEY/ERC20.sol\":3062:3092  allowed[owner][msg.sender].sub */\n      tag_66\n      swap1\n        /* \"DISNEY/ERC20.sol\":3062:3103  allowed[owner][msg.sender].sub(numTokens) */\n      swap2\n      swap1\n      0xffffffff\n      and\n      jump\t// in\n    tag_67:\n        /* \"DISNEY/ERC20.sol\":3033:3040  allowed */\n      0x01\n        /* \"DISNEY/ERC20.sol\":3033:3047  allowed[owner] */\n      0x00\n        /* \"DISNEY/ERC20.sol\":3041:3046  owner */\n      dup7\n        /* \"DISNEY/ERC20.sol\":3033:3047  allowed[owner] */\n      0xffffffffffffffffffffffffffffffffffffffff\n      and\n      0xffffffffffffffffffffffffffffffffffffffff\n      and\n      dup2\n      mstore\n      0x20\n      add\n      swap1\n      dup2\n      mstore\n      0x20\n      add\n      0x00\n      keccak256\n        /* \"DISNEY/ERC20.sol\":3033:3059  allowed[owner][msg.sender] */\n      0x00\n        /* \"DISNEY/ERC20.sol\":3048:3058  msg.sender */\n      caller\n        /* \"DISNEY/ERC20.sol\":3033:3059  allowed[owner][msg.sender] */\n      0xffffffffffffffffffffffffffffffffffffffff\n      and\n      0xffffffffffffffffffffffffffffffffffffffff\n      and\n      dup2\n      mstore\n      0x20\n      add\n      swap1\n      dup2\n      mstore\n      0x20\n      add\n      0x00\n      keccak256\n        /* \"DISNEY/ERC20.sol\":3033:3103  allowed[owner][msg.sender] = allowed[owner][msg.sender].sub(numTokens) */\n      dup2\n      swap1\n      sstore\n      pop\n        /* \"DISNEY/ERC20.sol\":3141:3171  balances[buyer].add(numTokens) */\n      tag_68\n        /* \"DISNEY/ERC20.sol\":3161:3170  numTokens */\n      dup3\n        /* \"DISNEY/ERC20.sol\":3141:3149  balances */\n      0x00\n        /* \"DISNEY/ERC20.sol\":3141:3156  balances[buyer] */\n      dup1\n        /* \"DISNEY/ERC20.sol\":3150:3155  buyer */\n      dup7\n        /* \"DISNEY/ERC20.sol\":3141:3156  balances[buyer] */\n      0xffffffffffffffffffffffffffffffffffffffff\n      and\n      0xffffffffffffffffffffffffffffffffffffffff\n      and\n      dup2\n      mstore\n      0x20\n      add\n      swap1\n      dup2\n      mstore\n      0x20\n      add\n      0x00\n      keccak256\n      sload\n        /* \"DISNEY/ERC20.sol\":3141:3160  balances[buyer].add */\n      tag_69\n      swap1\n        /* \"DISNEY/ERC20.sol\":3141:3171  balances[buyer].add(numTokens) */\n      swap2\n      swap1\n      0xffffffff\n      and\n      jump\t// in\n    tag_68:\n        /* \"DISNEY/ERC20.sol\":3123:3131  balances */\n      0x00\n        /* \"DISNEY/ERC20.sol\":3123:3138  balances[buyer] */\n      dup1\n        /* \"DISNEY/ERC20.sol\":3132:3137  buyer */\n      dup6\n        /* \"DISNEY/ERC20.sol\":3123:3138  balances[buyer] */\n      0xffffffffffffffffffffffffffffffffffffffff\n      and\n      0xffffffffffffffffffffffffffffffffffffffff\n      and\n      dup2\n      mstore\n      0x20\n      add\n      swap1\n      dup2\n      mstore\n      0x20\n      add\n      0x00\n      keccak256\n        /* \"DISNEY/ERC20.sol\":3123:3171  balances[buyer] = balances[buyer].add(numTokens) */\n      dup2\n      swap1\n      sstore\n      pop\n        /* \"DISNEY/ERC20.sol\":3213:3218  buyer */\n      dup3\n        /* \"DISNEY/ERC20.sol\":3197:3230  Transfer(owner, buyer, numTokens) */\n      0xffffffffffffffffffffffffffffffffffffffff\n      and\n        /* \"DISNEY/ERC20.sol\":3206:3211  owner */\n      dup5\n        /* \"DISNEY/ERC20.sol\":3197:3230  Transfer(owner, buyer, numTokens) */\n      0xffffffffffffffffffffffffffffffffffffffff\n      and\n      0xddf252ad1be2c89b69c2b068fc378daa952ba7f163c4a11628f55a4df523b3ef\n        /* \"DISNEY/ERC20.sol\":3220:3229  numTokens */\n      dup5\n        /* \"DISNEY/ERC20.sol\":3197:3230  Transfer(owner, buyer, numTokens) */\n      mload(0x40)\n      tag_70\n      swap2\n      swap1\n      jump(tag_27)\n    tag_70:\n      mload(0x40)\n      dup1\n      swap2\n      sub\n      swap1\n      log3\n        /* \"DISNEY/ERC20.sol\":3250:3254  true */\n      0x01\n        /* \"DISNEY/ERC20.sol\":3243:3254  return true */\n      swap1\n      pop\n        /* \"DISNEY/ERC20.sol\":2725:3272  function transferFrom(address owner, address buyer, uint256 numTokens) public override returns (bool){\r... */\n      swap4\n      swap3\n      pop\n      pop\n      pop\n      jump\t// out\n        /* \"DISNEY/ERC20.sol\":975:1009  uint8 public constant decimals = 2 */\n    tag_38:\n        /* \"DISNEY/ERC20.sol\":1008:1009  2 */\n      0x02\n        /* \"DISNEY/ERC20.sol\":975:1009  uint8 public constant decimals = 2 */\n      dup2\n      jump\t// out\n        /* \"DISNEY/ERC20.sol\":1799:1926  function balanceOf(address tokenOwner) public override view returns (uint256){\r... */\n    tag_44:\n        /* \"DISNEY/ERC20.sol\":1868:1875  uint256 */\n      0x00\n        /* \"DISNEY/ERC20.sol\":1896:1904  balances */\n      dup1\n        /* \"DISNEY/ERC20.sol\":1896:1916  balances[tokenOwner] */\n      0x00\n        /* \"DISNEY/ERC20.sol\":1905:1915  tokenOwner */\n      dup4\n        /* \"DISNEY/ERC20.sol\":1896:1916  balances[tokenOwner] */\n      0xffffffffffffffffffffffffffffffffffffffff\n      and\n      0xffffffffffffffffffffffffffffffffffffffff\n      and\n      dup2\n      mstore\n      0x20\n      add\n      swap1\n      dup2\n      mstore\n      0x20\n      add\n      0x00\n      keccak256\n      sload\n        /* \"DISNEY/ERC20.sol\":1889:1916  return balances[tokenOwner] */\n      swap1\n      pop\n        /* \"DISNEY/ERC20.sol\":1799:1926  function balanceOf(address tokenOwner) public override view returns (uint256){\r... */\n      swap2\n      swap1\n      pop\n      jump\t// out\n        /* \"DISNEY/ERC20.sol\":932:968  string public constant symbol = \"PC\" */\n    tag_47:\n      mload(0x40)\n      dup1\n      0x40\n      add\n      0x40\n      mstore\n      dup1\n      0x02\n      dup2\n      mstore\n      0x20\n      add\n      0x5043000000000000000000000000000000000000000000000000000000000000\n      dup2\n      mstore\n      pop\n      dup2\n      jump\t// out\n        /* \"DISNEY/ERC20.sol\":2091:2476  function transfer(address recipient, uint256 numTokens) public override returns (bool){\r... */\n    tag_51:\n        /* \"DISNEY/ERC20.sol\":2172:2176  bool */\n      0x00\n        /* \"DISNEY/ERC20.sol\":2211:2219  balances */\n      dup1\n        /* \"DISNEY/ERC20.sol\":2211:2231  balances[msg.sender] */\n      0x00\n        /* \"DISNEY/ERC20.sol\":2220:2230  msg.sender */\n      caller\n        /* \"DISNEY/ERC20.sol\":2211:2231  balances[msg.sender] */\n      0xffffffffffffffffffffffffffffffffffffffff\n      and\n      0xffffffffffffffffffffffffffffffffffffffff\n      and\n      dup2\n      mstore\n      0x20\n      add\n      swap1\n      dup2\n      mstore\n      0x20\n      add\n      0x00\n      keccak256\n      sload\n        /* \"DISNEY/ERC20.sol\":2198:2207  numTokens */\n      dup3\n        /* \"DISNEY/ERC20.sol\":2198:2231  numTokens <= balances[msg.sender] */\n      gt\n      iszero\n        /* \"DISNEY/ERC20.sol\":2190:2232  require(numTokens <= balances[msg.sender]) */\n      tag_73\n      jumpi\n        /* \"--CODEGEN--\":12:13   */\n      0x00\n        /* \"--CODEGEN--\":9:10   */\n      dup1\n        /* \"--CODEGEN--\":2:14   */\n      revert\n        /* \"DISNEY/ERC20.sol\":2190:2232  require(numTokens <= balances[msg.sender]) */\n    tag_73:\n        /* \"DISNEY/ERC20.sol\":2273:2308  balances[msg.sender].sub(numTokens) */\n      tag_74\n        /* \"DISNEY/ERC20.sol\":2298:2307  numTokens */\n      dup3\n        /* \"DISNEY/ERC20.sol\":2273:2281  balances */\n      0x00\n        /* \"DISNEY/ERC20.sol\":2273:2293  balances[msg.sender] */\n      dup1\n        /* \"DISNEY/ERC20.sol\":2282:2292  msg.sender */\n      caller\n        /* \"DISNEY/ERC20.sol\":2273:2293  balances[msg.sender] */\n      0xffffffffffffffffffffffffffffffffffffffff\n      and\n      0xffffffffffffffffffffffffffffffffffffffff\n      and\n      dup2\n      mstore\n      0x20\n      add\n      swap1\n      dup2\n      mstore\n      0x20\n      add\n      0x00\n      keccak256\n      sload\n        /* \"DISNEY/ERC20.sol\":2273:2297  balances[msg.sender].sub */\n      tag_66\n      swap1\n        /* \"DISNEY/ERC20.sol\":2273:2308  balances[msg.sender].sub(numTokens) */\n      swap2\n      swap1\n      0xffffffff\n      and\n      jump\t// in\n    tag_74:\n        /* \"DISNEY/ERC20.sol\":2250:2258  balances */\n      0x00\n        /* \"DISNEY/ERC20.sol\":2250:2270  balances[msg.sender] */\n      dup1\n        /* \"DISNEY/ERC20.sol\":2259:2269  msg.sender */\n      caller\n        /* \"DISNEY/ERC20.sol\":2250:2270  balances[msg.sender] */\n      0xffffffffffffffffffffffffffffffffffffffff\n      and\n      0xffffffffffffffffffffffffffffffffffffffff\n      and\n      dup2\n      mstore\n      0x20\n      add\n      swap1\n      dup2\n      mstore\n      0x20\n      add\n      0x00\n      keccak256\n        /* \"DISNEY/ERC20.sol\":2250:2308  balances[msg.sender] = balances[msg.sender].sub(numTokens) */\n      dup2\n      swap1\n      sstore\n      pop\n        /* \"DISNEY/ERC20.sol\":2343:2377  balances[recipient].add(numTokens) */\n      tag_75\n        /* \"DISNEY/ERC20.sol\":2367:2376  numTokens */\n      dup3\n        /* \"DISNEY/ERC20.sol\":2343:2351  balances */\n      0x00\n        /* \"DISNEY/ERC20.sol\":2343:2362  balances[recipient] */\n      dup1\n        /* \"DISNEY/ERC20.sol\":2352:2361  recipient */\n      dup7\n        /* \"DISNEY/ERC20.sol\":2343:2362  balances[recipient] */\n      0xffffffffffffffffffffffffffffffffffffffff\n      and\n      0xffffffffffffffffffffffffffffffffffffffff\n      and\n      dup2\n      mstore\n      0x20\n      add\n      swap1\n      dup2\n      mstore\n      0x20\n      add\n      0x00\n      keccak256\n      sload\n        /* \"DISNEY/ERC20.sol\":2343:2366  balances[recipient].add */\n      tag_69\n      swap1\n        /* \"DISNEY/ERC20.sol\":2343:2377  balances[recipient].add(numTokens) */\n      swap2\n      swap1\n      0xffffffff\n      and\n      jump\t// in\n    tag_75:\n        /* \"DISNEY/ERC20.sol\":2321:2329  balances */\n      0x00\n        /* \"DISNEY/ERC20.sol\":2321:2340  balances[recipient] */\n      dup1\n        /* \"DISNEY/ERC20.sol\":2330:2339  recipient */\n      dup6\n        /* \"DISNEY/ERC20.sol\":2321:2340  balances[recipient] */\n      0xffffffffffffffffffffffffffffffffffffffff\n      and\n      0xffffffffffffffffffffffffffffffffffffffff\n      and\n      dup2\n      mstore\n      0x20\n      add\n      swap1\n      dup2\n      mstore\n      0x20\n      add\n      0x00\n      keccak256\n        /* \"DISNEY/ERC20.sol\":2321:2377  balances[recipient] = balances[recipient].add(numTokens) */\n      dup2\n      swap1\n      sstore\n      pop\n        /* \"DISNEY/ERC20.sol\":2421:2430  recipient */\n      dup3\n        /* \"DISNEY/ERC20.sol\":2400:2442  Transfer(msg.sender, recipient, numTokens) */\n      0xffffffffffffffffffffffffffffffffffffffff\n      and\n        /* \"DISNEY/ERC20.sol\":2409:2419  msg.sender */\n      caller\n        /* \"DISNEY/ERC20.sol\":2400:2442  Transfer(msg.sender, recipient, numTokens) */\n      0xffffffffffffffffffffffffffffffffffffffff\n      and\n      0xddf252ad1be2c89b69c2b068fc378daa952ba7f163c4a11628f55a4df523b3ef\n        /* \"DISNEY/ERC20.sol\":2432:2441  numTokens */\n      dup5\n        /* \"DISNEY/ERC20.sol\":2400:2442  Transfer(msg.sender, recipient, numTokens) */\n      mload(0x40)\n      tag_76\n      swap2\n      swap1\n      jump(tag_27)\n    tag_76:\n      mload(0x40)\n      dup1\n      swap2\n      sub\n      swap1\n      log3\n        /* \"DISNEY/ERC20.sol\":2462:2466  true */\n      0x01\n        /* \"DISNEY/ERC20.sol\":2455:2466  return true */\n      swap1\n      pop\n        /* \"DISNEY/ERC20.sol\":2091:2476  function transfer(address recipient, uint256 numTokens) public override returns (bool){\r... */\n      swap3\n      swap2\n      pop\n      pop\n      jump\t// out\n        /* \"DISNEY/ERC20.sol\":1935:2083  function allowance(address owner, address delegate) public override view returns (uint256){\r... */\n    tag_56:\n        /* \"DISNEY/ERC20.sol\":2017:2024  uint256 */\n      0x00\n        /* \"DISNEY/ERC20.sol\":2049:2056  allowed */\n      0x01\n        /* \"DISNEY/ERC20.sol\":2049:2063  allowed[owner] */\n      0x00\n        /* \"DISNEY/ERC20.sol\":2057:2062  owner */\n      dup5\n        /* \"DISNEY/ERC20.sol\":2049:2063  allowed[owner] */\n      0xffffffffffffffffffffffffffffffffffffffff\n      and\n      0xffffffffffffffffffffffffffffffffffffffff\n      and\n      dup2\n      mstore\n      0x20\n      add\n      swap1\n      dup2\n      mstore\n      0x20\n      add\n      0x00\n      keccak256\n        /* \"DISNEY/ERC20.sol\":2049:2073  allowed[owner][delegate] */\n      0x00\n        /* \"DISNEY/ERC20.sol\":2064:2072  delegate */\n      dup4\n        /* \"DISNEY/ERC20.sol\":2049:2073  allowed[owner][delegate] */\n      0xffffffffffffffffffffffffffffffffffffffff\n      and\n      0xffffffffffffffffffffffffffffffffffffffff\n      and\n      dup2\n      mstore\n      0x20\n      add\n      swap1\n      dup2\n      mstore\n      0x20\n      add\n      0x00\n      keccak256\n      sload\n        /* \"DISNEY/ERC20.sol\":2042:2073  return allowed[owner][delegate] */\n      swap1\n      pop\n        /* \"DISNEY/ERC20.sol\":1935:2083  function allowance(address owner, address delegate) public override view returns (uint256){\r... */\n      swap3\n      swap2\n      pop\n      pop\n      jump\t// out\n        /* \"DISNEY/SafeMath.sol\":318:437  function sub(uint256 a, uint256 b) internal pure returns (uint256) {\r... */\n    tag_66:\n        /* \"DISNEY/SafeMath.sol\":376:383  uint256 */\n      0x00\n        /* \"DISNEY/SafeMath.sol\":406:407  a */\n      dup3\n        /* \"DISNEY/SafeMath.sol\":401:402  b */\n      dup3\n        /* \"DISNEY/SafeMath.sol\":401:407  b <= a */\n      gt\n      iszero\n        /* \"DISNEY/SafeMath.sol\":394:408  assert(b <= a) */\n      tag_79\n      jumpi\n      invalid\n    tag_79:\n        /* \"DISNEY/SafeMath.sol\":428:429  b */\n      dup2\n        /* \"DISNEY/SafeMath.sol\":424:425  a */\n      dup4\n        /* \"DISNEY/SafeMath.sol\":424:429  a - b */\n      sub\n        /* \"DISNEY/SafeMath.sol\":417:429  return a - b */\n      swap1\n      pop\n        /* \"DISNEY/SafeMath.sol\":318:437  function sub(uint256 a, uint256 b) internal pure returns (uint256) {\r... */\n      swap3\n      swap2\n      pop\n      pop\n      jump\t// out\n        /* \"DISNEY/SafeMath.sol\":463:604  function add(uint256 a, uint256 b) internal pure returns (uint256) {\r... */\n    tag_69:\n        /* \"DISNEY/SafeMath.sol\":521:528  uint256 */\n      0x00\n        /* \"DISNEY/SafeMath.sol\":539:548  uint256 c */\n      dup1\n        /* \"DISNEY/SafeMath.sol\":555:556  b */\n      dup3\n        /* \"DISNEY/SafeMath.sol\":551:552  a */\n      dup5\n        /* \"DISNEY/SafeMath.sol\":551:556  a + b */\n      add\n        /* \"DISNEY/SafeMath.sol\":539:556  uint256 c = a + b */\n      swap1\n      pop\n        /* \"DISNEY/SafeMath.sol\":577:578  a */\n      dup4\n        /* \"DISNEY/SafeMath.sol\":572:573  c */\n      dup2\n        /* \"DISNEY/SafeMath.sol\":572:578  c >= a */\n      lt\n      iszero\n        /* \"DISNEY/SafeMath.sol\":565:579  assert(c >= a) */\n      tag_81\n      jumpi\n      invalid\n    tag_81:\n        /* \"DISNEY/SafeMath.sol\":595:596  c */\n      dup1\n        /* \"DISNEY/SafeMath.sol\":588:596  return c */\n      swap2\n      pop\n      pop\n        /* \"DISNEY/SafeMath.sol\":463:604  function add(uint256 a, uint256 b) internal pure returns (uint256) {\r... */\n      swap3\n      swap2\n      pop\n      pop\n      jump\t// out\n        /* \"--CODEGEN--\":5:135   */\n    tag_83:\n      0x00\n        /* \"--CODEGEN--\":85:91   */\n      dup2\n        /* \"--CODEGEN--\":72:92   */\n      calldataload\n        /* \"--CODEGEN--\":63:92   */\n      swap1\n      pop\n        /* \"--CODEGEN--\":97:130   */\n      tag_85\n        /* \"--CODEGEN--\":124:129   */\n      dup2\n        /* \"--CODEGEN--\":97:130   */\n      jump(tag_86)\n    tag_85:\n        /* \"--CODEGEN--\":57:135   */\n      swap3\n      swap2\n      pop\n      pop\n      jump\n        /* \"--CODEGEN--\":142:272   */\n    tag_87:\n      0x00\n        /* \"--CODEGEN--\":222:228   */\n      dup2\n        /* \"--CODEGEN--\":209:229   */\n      calldataload\n        /* \"--CODEGEN--\":200:229   */\n      swap1\n      pop\n        /* \"--CODEGEN--\":234:267   */\n      tag_89\n        /* \"--CODEGEN--\":261:266   */\n      dup2\n        /* \"--CODEGEN--\":234:267   */\n      jump(tag_90)\n    tag_89:\n        /* \"--CODEGEN--\":194:272   */\n      swap3\n      swap2\n      pop\n      pop\n      jump\n        /* \"--CODEGEN--\":279:520   */\n    tag_43:\n      0x00\n        /* \"--CODEGEN--\":383:385   */\n      0x20\n        /* \"--CODEGEN--\":371:380   */\n      dup3\n        /* \"--CODEGEN--\":362:369   */\n      dup5\n        /* \"--CODEGEN--\":358:381   */\n      sub\n        /* \"--CODEGEN--\":354:386   */\n      slt\n        /* \"--CODEGEN--\":351:353   */\n      iszero\n      tag_92\n      jumpi\n        /* \"--CODEGEN--\":399:400   */\n      0x00\n        /* \"--CODEGEN--\":396:397   */\n      dup1\n        /* \"--CODEGEN--\":389:401   */\n      revert\n        /* \"--CODEGEN--\":351:353   */\n    tag_92:\n        /* \"--CODEGEN--\":434:435   */\n      0x00\n        /* \"--CODEGEN--\":451:504   */\n      tag_93\n        /* \"--CODEGEN--\":496:503   */\n      dup5\n        /* \"--CODEGEN--\":487:493   */\n      dup3\n        /* \"--CODEGEN--\":476:485   */\n      dup6\n        /* \"--CODEGEN--\":472:494   */\n      add\n        /* \"--CODEGEN--\":451:504   */\n      jump(tag_83)\n    tag_93:\n        /* \"--CODEGEN--\":441:504   */\n      swap2\n      pop\n        /* \"--CODEGEN--\":413:510   */\n      pop\n        /* \"--CODEGEN--\":345:520   */\n      swap3\n      swap2\n      pop\n      pop\n      jump\n        /* \"--CODEGEN--\":527:893   */\n    tag_55:\n      0x00\n      dup1\n        /* \"--CODEGEN--\":648:650   */\n      0x40\n        /* \"--CODEGEN--\":636:645   */\n      dup4\n        /* \"--CODEGEN--\":627:634   */\n      dup6\n        /* \"--CODEGEN--\":623:646   */\n      sub\n        /* \"--CODEGEN--\":619:651   */\n      slt\n        /* \"--CODEGEN--\":616:618   */\n      iszero\n      tag_95\n      jumpi\n        /* \"--CODEGEN--\":664:665   */\n      0x00\n        /* \"--CODEGEN--\":661:662   */\n      dup1\n        /* \"--CODEGEN--\":654:666   */\n      revert\n        /* \"--CODEGEN--\":616:618   */\n    tag_95:\n        /* \"--CODEGEN--\":699:700   */\n      0x00\n        /* \"--CODEGEN--\":716:769   */\n      tag_96\n        /* \"--CODEGEN--\":761:768   */\n      dup6\n        /* \"--CODEGEN--\":752:758   */\n      dup3\n        /* \"--CODEGEN--\":741:750   */\n      dup7\n        /* \"--CODEGEN--\":737:759   */\n      add\n        /* \"--CODEGEN--\":716:769   */\n      jump(tag_83)\n    tag_96:\n        /* \"--CODEGEN--\":706:769   */\n      swap3\n      pop\n        /* \"--CODEGEN--\":678:775   */\n      pop\n        /* \"--CODEGEN--\":806:808   */\n      0x20\n        /* \"--CODEGEN--\":824:877   */\n      tag_97\n        /* \"--CODEGEN--\":869:876   */\n      dup6\n        /* \"--CODEGEN--\":860:866   */\n      dup3\n        /* \"--CODEGEN--\":849:858   */\n      dup7\n        /* \"--CODEGEN--\":845:867   */\n      add\n        /* \"--CODEGEN--\":824:877   */\n      jump(tag_83)\n    tag_97:\n        /* \"--CODEGEN--\":814:877   */\n      swap2\n      pop\n        /* \"--CODEGEN--\":785:883   */\n      pop\n        /* \"--CODEGEN--\":610:893   */\n      swap3\n      pop\n      swap3\n      swap1\n      pop\n      jump\n        /* \"--CODEGEN--\":900:1391   */\n    tag_34:\n      0x00\n      dup1\n      0x00\n        /* \"--CODEGEN--\":1038:1040   */\n      0x60\n        /* \"--CODEGEN--\":1026:1035   */\n      dup5\n        /* \"--CODEGEN--\":1017:1024   */\n      dup7\n        /* \"--CODEGEN--\":1013:1036   */\n      sub\n        /* \"--CODEGEN--\":1009:1041   */\n      slt\n        /* \"--CODEGEN--\":1006:1008   */\n      iszero\n      tag_99\n      jumpi\n        /* \"--CODEGEN--\":1054:1055   */\n      0x00\n        /* \"--CODEGEN--\":1051:1052   */\n      dup1\n        /* \"--CODEGEN--\":1044:1056   */\n      revert\n        /* \"--CODEGEN--\":1006:1008   */\n    tag_99:\n        /* \"--CODEGEN--\":1089:1090   */\n      0x00\n        /* \"--CODEGEN--\":1106:1159   */\n      tag_100\n        /* \"--CODEGEN--\":1151:1158   */\n      dup7\n        /* \"--CODEGEN--\":1142:1148   */\n      dup3\n        /* \"--CODEGEN--\":1131:1140   */\n      dup8\n        /* \"--CODEGEN--\":1127:1149   */\n      add\n        /* \"--CODEGEN--\":1106:1159   */\n      jump(tag_83)\n    tag_100:\n        /* \"--CODEGEN--\":1096:1159   */\n      swap4\n      pop\n        /* \"--CODEGEN--\":1068:1165   */\n      pop\n        /* \"--CODEGEN--\":1196:1198   */\n      0x20\n        /* \"--CODEGEN--\":1214:1267   */\n      tag_101\n        /* \"--CODEGEN--\":1259:1266   */\n      dup7\n        /* \"--CODEGEN--\":1250:1256   */\n      dup3\n        /* \"--CODEGEN--\":1239:1248   */\n      dup8\n        /* \"--CODEGEN--\":1235:1257   */\n      add\n        /* \"--CODEGEN--\":1214:1267   */\n      jump(tag_83)\n    tag_101:\n        /* \"--CODEGEN--\":1204:1267   */\n      swap3\n      pop\n        /* \"--CODEGEN--\":1175:1273   */\n      pop\n        /* \"--CODEGEN--\":1304:1306   */\n      0x40\n        /* \"--CODEGEN--\":1322:1375   */\n      tag_102\n        /* \"--CODEGEN--\":1367:1374   */\n      dup7\n        /* \"--CODEGEN--\":1358:1364   */\n      dup3\n        /* \"--CODEGEN--\":1347:1356   */\n      dup8\n        /* \"--CODEGEN--\":1343:1365   */\n      add\n        /* \"--CODEGEN--\":1322:1375   */\n      jump(tag_87)\n    tag_102:\n        /* \"--CODEGEN--\":1312:1375   */\n      swap2\n      pop\n        /* \"--CODEGEN--\":1283:1381   */\n      pop\n        /* \"--CODEGEN--\":1000:1391   */\n      swap3\n      pop\n      swap3\n      pop\n      swap3\n      jump\n        /* \"--CODEGEN--\":1398:1764   */\n    tag_20:\n      0x00\n      dup1\n        /* \"--CODEGEN--\":1519:1521   */\n      0x40\n        /* \"--CODEGEN--\":1507:1516   */\n      dup4\n        /* \"--CODEGEN--\":1498:1505   */\n      dup6\n        /* \"--CODEGEN--\":1494:1517   */\n      sub\n        /* \"--CODEGEN--\":1490:1522   */\n      slt\n        /* \"--CODEGEN--\":1487:1489   */\n      iszero\n      tag_104\n      jumpi\n        /* \"--CODEGEN--\":1535:1536   */\n      0x00\n        /* \"--CODEGEN--\":1532:1533   */\n      dup1\n        /* \"--CODEGEN--\":1525:1537   */\n      revert\n        /* \"--CODEGEN--\":1487:1489   */\n    tag_104:\n        /* \"--CODEGEN--\":1570:1571   */\n      0x00\n        /* \"--CODEGEN--\":1587:1640   */\n      tag_105\n        /* \"--CODEGEN--\":1632:1639   */\n      dup6\n        /* \"--CODEGEN--\":1623:1629   */\n      dup3\n        /* \"--CODEGEN--\":1612:1621   */\n      dup7\n        /* \"--CODEGEN--\":1608:1630   */\n      add\n        /* \"--CODEGEN--\":1587:1640   */\n      jump(tag_83)\n    tag_105:\n        /* \"--CODEGEN--\":1577:1640   */\n      swap3\n      pop\n        /* \"--CODEGEN--\":1549:1646   */\n      pop\n        /* \"--CODEGEN--\":1677:1679   */\n      0x20\n        /* \"--CODEGEN--\":1695:1748   */\n      tag_106\n        /* \"--CODEGEN--\":1740:1747   */\n      dup6\n        /* \"--CODEGEN--\":1731:1737   */\n      dup3\n        /* \"--CODEGEN--\":1720:1729   */\n      dup7\n        /* \"--CODEGEN--\":1716:1738   */\n      add\n        /* \"--CODEGEN--\":1695:1748   */\n      jump(tag_87)\n    tag_106:\n        /* \"--CODEGEN--\":1685:1748   */\n      swap2\n      pop\n        /* \"--CODEGEN--\":1656:1754   */\n      pop\n        /* \"--CODEGEN--\":1481:1764   */\n      swap3\n      pop\n      swap3\n      swap1\n      pop\n      jump\n        /* \"--CODEGEN--\":1771:2012   */\n    tag_30:\n      0x00\n        /* \"--CODEGEN--\":1875:1877   */\n      0x20\n        /* \"--CODEGEN--\":1863:1872   */\n      dup3\n        /* \"--CODEGEN--\":1854:1861   */\n      dup5\n        /* \"--CODEGEN--\":1850:1873   */\n      sub\n        /* \"--CODEGEN--\":1846:1878   */\n      slt\n        /* \"--CODEGEN--\":1843:1845   */\n      iszero\n      tag_108\n      jumpi\n        /* \"--CODEGEN--\":1891:1892   */\n      0x00\n        /* \"--CODEGEN--\":1888:1889   */\n      dup1\n        /* \"--CODEGEN--\":1881:1893   */\n      revert\n        /* \"--CODEGEN--\":1843:1845   */\n    tag_108:\n        /* \"--CODEGEN--\":1926:1927   */\n      0x00\n        /* \"--CODEGEN--\":1943:1996   */\n      tag_109\n        /* \"--CODEGEN--\":1988:1995   */\n      dup5\n        /* \"--CODEGEN--\":1979:1985   */\n      dup3\n        /* \"--CODEGEN--\":1968:1977   */\n      dup6\n        /* \"--CODEGEN--\":1964:1986   */\n      add\n        /* \"--CODEGEN--\":1943:1996   */\n      jump(tag_87)\n    tag_109:\n        /* \"--CODEGEN--\":1933:1996   */\n      swap2\n      pop\n        /* \"--CODEGEN--\":1905:2002   */\n      pop\n        /* \"--CODEGEN--\":1837:2012   */\n      swap3\n      swap2\n      pop\n      pop\n      jump\n        /* \"--CODEGEN--\":2019:2123   */\n    tag_110:\n        /* \"--CODEGEN--\":2096:2117   */\n      tag_112\n        /* \"--CODEGEN--\":2111:2116   */\n      dup2\n        /* \"--CODEGEN--\":2096:2117   */\n      jump(tag_113)\n    tag_112:\n        /* \"--CODEGEN--\":2091:2094   */\n      dup3\n        /* \"--CODEGEN--\":2084:2118   */\n      mstore\n        /* \"--CODEGEN--\":2078:2123   */\n      pop\n      pop\n      jump\n        /* \"--CODEGEN--\":2130:2477   */\n    tag_114:\n      0x00\n        /* \"--CODEGEN--\":2242:2281   */\n      tag_116\n        /* \"--CODEGEN--\":2275:2280   */\n      dup3\n        /* \"--CODEGEN--\":2242:2281   */\n      jump(tag_117)\n    tag_116:\n        /* \"--CODEGEN--\":2293:2364   */\n      tag_118\n        /* \"--CODEGEN--\":2357:2363   */\n      dup2\n        /* \"--CODEGEN--\":2352:2355   */\n      dup6\n        /* \"--CODEGEN--\":2293:2364   */\n      jump(tag_119)\n    tag_118:\n        /* \"--CODEGEN--\":2286:2364   */\n      swap4\n      pop\n        /* \"--CODEGEN--\":2369:2421   */\n      tag_120\n        /* \"--CODEGEN--\":2414:2420   */\n      dup2\n        /* \"--CODEGEN--\":2409:2412   */\n      dup6\n        /* \"--CODEGEN--\":2402:2406   */\n      0x20\n        /* \"--CODEGEN--\":2395:2400   */\n      dup7\n        /* \"--CODEGEN--\":2391:2407   */\n      add\n        /* \"--CODEGEN--\":2369:2421   */\n      jump(tag_121)\n    tag_120:\n        /* \"--CODEGEN--\":2442:2471   */\n      tag_122\n        /* \"--CODEGEN--\":2464:2470   */\n      dup2\n        /* \"--CODEGEN--\":2442:2471   */\n      jump(tag_123)\n    tag_122:\n        /* \"--CODEGEN--\":2437:2440   */\n      dup5\n        /* \"--CODEGEN--\":2433:2472   */\n      add\n        /* \"--CODEGEN--\":2426:2472   */\n      swap2\n      pop\n        /* \"--CODEGEN--\":2222:2477   */\n      pop\n      swap3\n      swap2\n      pop\n      pop\n      jump\n        /* \"--CODEGEN--\":2484:2597   */\n    tag_124:\n        /* \"--CODEGEN--\":2567:2591   */\n      tag_126\n        /* \"--CODEGEN--\":2585:2590   */\n      dup2\n        /* \"--CODEGEN--\":2567:2591   */\n      jump(tag_127)\n    tag_126:\n        /* \"--CODEGEN--\":2562:2565   */\n      dup3\n        /* \"--CODEGEN--\":2555:2592   */\n      mstore\n        /* \"--CODEGEN--\":2549:2597   */\n      pop\n      pop\n      jump\n        /* \"--CODEGEN--\":2604:2711   */\n    tag_128:\n        /* \"--CODEGEN--\":2683:2705   */\n      tag_130\n        /* \"--CODEGEN--\":2699:2704   */\n      dup2\n        /* \"--CODEGEN--\":2683:2705   */\n      jump(tag_131)\n    tag_130:\n        /* \"--CODEGEN--\":2678:2681   */\n      dup3\n        /* \"--CODEGEN--\":2671:2706   */\n      mstore\n        /* \"--CODEGEN--\":2665:2711   */\n      pop\n      pop\n      jump\n        /* \"--CODEGEN--\":2718:2928   */\n    tag_23:\n      0x00\n        /* \"--CODEGEN--\":2839:2841   */\n      0x20\n        /* \"--CODEGEN--\":2828:2837   */\n      dup3\n        /* \"--CODEGEN--\":2824:2842   */\n      add\n        /* \"--CODEGEN--\":2816:2842   */\n      swap1\n      pop\n        /* \"--CODEGEN--\":2853:2918   */\n      tag_133\n        /* \"--CODEGEN--\":2915:2916   */\n      0x00\n        /* \"--CODEGEN--\":2904:2913   */\n      dup4\n        /* \"--CODEGEN--\":2900:2917   */\n      add\n        /* \"--CODEGEN--\":2891:2897   */\n      dup5\n        /* \"--CODEGEN--\":2853:2918   */\n      jump(tag_110)\n    tag_133:\n        /* \"--CODEGEN--\":2810:2928   */\n      swap3\n      swap2\n      pop\n      pop\n      jump\n        /* \"--CODEGEN--\":2935:3245   */\n    tag_17:\n      0x00\n        /* \"--CODEGEN--\":3082:3084   */\n      0x20\n        /* \"--CODEGEN--\":3071:3080   */\n      dup3\n        /* \"--CODEGEN--\":3067:3085   */\n      add\n        /* \"--CODEGEN--\":3059:3085   */\n      swap1\n      pop\n        /* \"--CODEGEN--\":3132:3141   */\n      dup2\n        /* \"--CODEGEN--\":3126:3130   */\n      dup2\n        /* \"--CODEGEN--\":3122:3142   */\n      sub\n        /* \"--CODEGEN--\":3118:3119   */\n      0x00\n        /* \"--CODEGEN--\":3107:3116   */\n      dup4\n        /* \"--CODEGEN--\":3103:3120   */\n      add\n        /* \"--CODEGEN--\":3096:3143   */\n      mstore\n        /* \"--CODEGEN--\":3157:3235   */\n      tag_135\n        /* \"--CODEGEN--\":3230:3234   */\n      dup2\n        /* \"--CODEGEN--\":3221:3227   */\n      dup5\n        /* \"--CODEGEN--\":3157:3235   */\n      jump(tag_114)\n    tag_135:\n        /* \"--CODEGEN--\":3149:3235   */\n      swap1\n      pop\n        /* \"--CODEGEN--\":3053:3245   */\n      swap3\n      swap2\n      pop\n      pop\n      jump\n        /* \"--CODEGEN--\":3252:3474   */\n    tag_27:\n      0x00\n        /* \"--CODEGEN--\":3379:3381   */\n      0x20\n        /* \"--CODEGEN--\":3368:3377   */\n      dup3\n        /* \"--CODEGEN--\":3364:3382   */\n      add\n        /* \"--CODEGEN--\":3356:3382   */\n      swap1\n      pop\n        /* \"--CODEGEN--\":3393:3464   */\n      tag_137\n        /* \"--CODEGEN--\":3461:3462   */\n      0x00\n        /* \"--CODEGEN--\":3450:3459   */\n      dup4\n        /* \"--CODEGEN--\":3446:3463   */\n      add\n        /* \"--CODEGEN--\":3437:3443   */\n      dup5\n        /* \"--CODEGEN--\":3393:3464   */\n      jump(tag_124)\n    tag_137:\n        /* \"--CODEGEN--\":3350:3474   */\n      swap3\n      swap2\n      pop\n      pop\n      jump\n        /* \"--CODEGEN--\":3481:3695   */\n    tag_40:\n      0x00\n        /* \"--CODEGEN--\":3604:3606   */\n      0x20\n        /* \"--CODEGEN--\":3593:3602   */\n      dup3\n        /* \"--CODEGEN--\":3589:3607   */\n      add\n        /* \"--CODEGEN--\":3581:3607   */\n      swap1\n      pop\n        /* \"--CODEGEN--\":3618:3685   */\n      tag_139\n        /* \"--CODEGEN--\":3682:3683   */\n      0x00\n        /* \"--CODEGEN--\":3671:3680   */\n      dup4\n        /* \"--CODEGEN--\":3667:3684   */\n      add\n        /* \"--CODEGEN--\":3658:3664   */\n      dup5\n        /* \"--CODEGEN--\":3618:3685   */\n      jump(tag_128)\n    tag_139:\n        /* \"--CODEGEN--\":3575:3695   */\n      swap3\n      swap2\n      pop\n      pop\n      jump\n        /* \"--CODEGEN--\":3702:3824   */\n    tag_117:\n      0x00\n        /* \"--CODEGEN--\":3796:3801   */\n      dup2\n        /* \"--CODEGEN--\":3790:3802   */\n      mload\n        /* \"--CODEGEN--\":3780:3802   */\n      swap1\n      pop\n        /* \"--CODEGEN--\":3761:3824   */\n      swap2\n      swap1\n      pop\n      jump\n        /* \"--CODEGEN--\":3832:3995   */\n    tag_119:\n      0x00\n        /* \"--CODEGEN--\":3947:3953   */\n      dup3\n        /* \"--CODEGEN--\":3942:3945   */\n      dup3\n        /* \"--CODEGEN--\":3935:3954   */\n      mstore\n        /* \"--CODEGEN--\":3984:3988   */\n      0x20\n        /* \"--CODEGEN--\":3979:3982   */\n      dup3\n        /* \"--CODEGEN--\":3975:3989   */\n      add\n        /* \"--CODEGEN--\":3960:3989   */\n      swap1\n      pop\n        /* \"--CODEGEN--\":3928:3995   */\n      swap3\n      swap2\n      pop\n      pop\n      jump\n        /* \"--CODEGEN--\":4003:4094   */\n    tag_142:\n      0x00\n        /* \"--CODEGEN--\":4065:4089   */\n      tag_144\n        /* \"--CODEGEN--\":4083:4088   */\n      dup3\n        /* \"--CODEGEN--\":4065:4089   */\n      jump(tag_145)\n    tag_144:\n        /* \"--CODEGEN--\":4054:4089   */\n      swap1\n      pop\n        /* \"--CODEGEN--\":4048:4094   */\n      swap2\n      swap1\n      pop\n      jump\n        /* \"--CODEGEN--\":4101:4186   */\n    tag_113:\n      0x00\n        /* \"--CODEGEN--\":4174:4179   */\n      dup2\n        /* \"--CODEGEN--\":4167:4180   */\n      iszero\n        /* \"--CODEGEN--\":4160:4181   */\n      iszero\n        /* \"--CODEGEN--\":4149:4181   */\n      swap1\n      pop\n        /* \"--CODEGEN--\":4143:4186   */\n      swap2\n      swap1\n      pop\n      jump\n        /* \"--CODEGEN--\":4193:4314   */\n    tag_145:\n      0x00\n        /* \"--CODEGEN--\":4266:4308   */\n      0xffffffffffffffffffffffffffffffffffffffff\n        /* \"--CODEGEN--\":4259:4264   */\n      dup3\n        /* \"--CODEGEN--\":4255:4309   */\n      and\n        /* \"--CODEGEN--\":4244:4309   */\n      swap1\n      pop\n        /* \"--CODEGEN--\":4238:4314   */\n      swap2\n      swap1\n      pop\n      jump\n        /* \"--CODEGEN--\":4321:4393   */\n    tag_127:\n      0x00\n        /* \"--CODEGEN--\":4383:4388   */\n      dup2\n        /* \"--CODEGEN--\":4372:4388   */\n      swap1\n      pop\n        /* \"--CODEGEN--\":4366:4393   */\n      swap2\n      swap1\n      pop\n      jump\n        /* \"--CODEGEN--\":4400:4481   */\n    tag_131:\n      0x00\n        /* \"--CODEGEN--\":4471:4475   */\n      0xff\n        /* \"--CODEGEN--\":4464:4469   */\n      dup3\n        /* \"--CODEGEN--\":4460:4476   */\n      and\n        /* \"--CODEGEN--\":4449:4476   */\n      swap1\n      pop\n        /* \"--CODEGEN--\":4443:4481   */\n      swap2\n      swap1\n      pop\n      jump\n        /* \"--CODEGEN--\":4489:4757   */\n    tag_121:\n        /* \"--CODEGEN--\":4554:4555   */\n      0x00\n        /* \"--CODEGEN--\":4561:4662   */\n    tag_151:\n        /* \"--CODEGEN--\":4575:4581   */\n      dup4\n        /* \"--CODEGEN--\":4572:4573   */\n      dup2\n        /* \"--CODEGEN--\":4569:4582   */\n      lt\n        /* \"--CODEGEN--\":4561:4662   */\n      iszero\n      tag_153\n      jumpi\n        /* \"--CODEGEN--\":4651:4652   */\n      dup1\n        /* \"--CODEGEN--\":4646:4649   */\n      dup3\n        /* \"--CODEGEN--\":4642:4653   */\n      add\n        /* \"--CODEGEN--\":4636:4654   */\n      mload\n        /* \"--CODEGEN--\":4632:4633   */\n      dup2\n        /* \"--CODEGEN--\":4627:4630   */\n      dup5\n        /* \"--CODEGEN--\":4623:4634   */\n      add\n        /* \"--CODEGEN--\":4616:4655   */\n      mstore\n        /* \"--CODEGEN--\":4597:4599   */\n      0x20\n        /* \"--CODEGEN--\":4594:4595   */\n      dup2\n        /* \"--CODEGEN--\":4590:4600   */\n      add\n        /* \"--CODEGEN--\":4585:4600   */\n      swap1\n      pop\n        /* \"--CODEGEN--\":4561:4662   */\n      jump(tag_151)\n    tag_153:\n        /* \"--CODEGEN--\":4677:4683   */\n      dup4\n        /* \"--CODEGEN--\":4674:4675   */\n      dup2\n        /* \"--CODEGEN--\":4671:4684   */\n      gt\n        /* \"--CODEGEN--\":4668:4670   */\n      iszero\n      tag_154\n      jumpi\n        /* \"--CODEGEN--\":4742:4743   */\n      0x00\n        /* \"--CODEGEN--\":4733:4739   */\n      dup5\n        /* \"--CODEGEN--\":4728:4731   */\n      dup5\n        /* \"--CODEGEN--\":4724:4740   */\n      add\n        /* \"--CODEGEN--\":4717:4744   */\n      mstore\n        /* \"--CODEGEN--\":4668:4670   */\n    tag_154:\n        /* \"--CODEGEN--\":4538:4757   */\n      pop\n      pop\n      pop\n      pop\n      jump\n        /* \"--CODEGEN--\":4765:4862   */\n    tag_123:\n      0x00\n        /* \"--CODEGEN--\":4853:4855   */\n      0x1f\n        /* \"--CODEGEN--\":4849:4856   */\n      not\n        /* \"--CODEGEN--\":4844:4846   */\n      0x1f\n        /* \"--CODEGEN--\":4837:4842   */\n      dup4\n        /* \"--CODEGEN--\":4833:4847   */\n      add\n        /* \"--CODEGEN--\":4829:4857   */\n      and\n        /* \"--CODEGEN--\":4819:4857   */\n      swap1\n      pop\n        /* \"--CODEGEN--\":4813:4862   */\n      swap2\n      swap1\n      pop\n      jump\n        /* \"--CODEGEN--\":4870:4987   */\n    tag_86:\n        /* \"--CODEGEN--\":4939:4963   */\n      tag_157\n        /* \"--CODEGEN--\":4957:4962   */\n      dup2\n        /* \"--CODEGEN--\":4939:4963   */\n      jump(tag_142)\n    tag_157:\n        /* \"--CODEGEN--\":4932:4937   */\n      dup2\n        /* \"--CODEGEN--\":4929:4964   */\n      eq\n        /* \"--CODEGEN--\":4919:4921   */\n      tag_158\n      jumpi\n        /* \"--CODEGEN--\":4978:4979   */\n      0x00\n        /* \"--CODEGEN--\":4975:4976   */\n      dup1\n        /* \"--CODEGEN--\":4968:4980   */\n      revert\n        /* \"--CODEGEN--\":4919:4921   */\n    tag_158:\n        /* \"--CODEGEN--\":4913:4987   */\n      pop\n      jump\n        /* \"--CODEGEN--\":4994:5111   */\n    tag_90:\n        /* \"--CODEGEN--\":5063:5087   */\n      tag_160\n        /* \"--CODEGEN--\":5081:5086   */\n      dup2\n        /* \"--CODEGEN--\":5063:5087   */\n      jump(tag_127)\n    tag_160:\n        /* \"--CODEGEN--\":5056:5061   */\n      dup2\n        /* \"--CODEGEN--\":5053:5088   */\n      eq\n        /* \"--CODEGEN--\":5043:5045   */\n      tag_161\n      jumpi\n        /* \"--CODEGEN--\":5102:5103   */\n      0x00\n        /* \"--CODEGEN--\":5099:5100   */\n      dup1\n        /* \"--CODEGEN--\":5092:5104   */\n      revert\n        /* \"--CODEGEN--\":5043:5045   */\n    tag_161:\n        /* \"--CODEGEN--\":5037:5111   */\n      pop\n      jump\n\n    auxdata: 0xa264697066735822122094b4c5ff13e7eaecfd883d502f77ae208a5e6c251124c84c45cd15e839b3ea7364736f6c63430006080033\n}\n",
				"bytecode": {
					"linkReferences": {},
					"object": "608060405234801561001057600080fd5b50604051610e7f380380610e7f83398181016040528101906100329190610099565b806002819055506002546000803373ffffffffffffffffffffffffffffffffffffffff1673ffffffffffffffffffffffffffffffffffffffff16815260200190815260200160002081905550506100e3565b600081519050610093816100cc565b92915050565b6000602082840312156100ab57600080fd5b60006100b984828501610084565b91505092915050565b6000819050919050565b6100d5816100c2565b81146100e057600080fd5b50565b610d8d806100f26000396000f3fe608060405234801561001057600080fd5b506004361061009e5760003560e01c8063313ce56711610066578063313ce5671461015b57806370a082311461017957806395d89b41146101a9578063a9059cbb146101c7578063dd62ed3e146101f75761009e565b806306fdde03146100a3578063095ea7b3146100c157806318160ddd146100f15780631d43cc981461010f57806323b872dd1461012b575b600080fd5b6100ab610227565b6040516100b89190610c1c565b60405180910390f35b6100db60048036038101906100d69190610b36565b610260565b6040516100e89190610c01565b60405180910390f35b6100f9610352565b6040516101069190610c3e565b60405180910390f35b61012960048036038101906101249190610b72565b61035c565b005b61014560048036038101906101409190610ae7565b6103bb565b6040516101529190610c01565b60405180910390f35b610163610736565b6040516101709190610c59565b60405180910390f35b610193600480360381019061018e9190610a82565b61073b565b6040516101a09190610c3e565b60405180910390f35b6101b1610783565b6040516101be9190610c1c565b60405180910390f35b6101e160048036038101906101dc9190610b36565b6107bc565b6040516101ee9190610c01565b60405180910390f35b610211600480360381019061020c9190610aab565b61099e565b60405161021e9190610c3e565b60405180910390f35b6040518060400160405280600f81526020017f4552433230507275656261436f696e000000000000000000000000000000000081525081565b600081600160003373ffffffffffffffffffffffffffffffffffffffff1673ffffffffffffffffffffffffffffffffffffffff16815260200190815260200160002060008573ffffffffffffffffffffffffffffffffffffffff1673ffffffffffffffffffffffffffffffffffffffff168152602001908152602001600020819055508273ffffffffffffffffffffffffffffffffffffffff163373ffffffffffffffffffffffffffffffffffffffff167f8c5be1e5ebec7d5bd14f71427d1e84f3dd0314c0f7b2291e5b200ac8c7c3b925846040516103409190610c3e565b60405180910390a36001905092915050565b6000600254905090565b80600260008282540192505081905550806000803373ffffffffffffffffffffffffffffffffffffffff1673ffffffffffffffffffffffffffffffffffffffff1681526020019081526020016000206000828254019250508190555050565b60008060008573ffffffffffffffffffffffffffffffffffffffff1673ffffffffffffffffffffffffffffffffffffffff1681526020019081526020016000205482111561040857600080fd5b600160008573ffffffffffffffffffffffffffffffffffffffff1673ffffffffffffffffffffffffffffffffffffffff16815260200190815260200160002060003373ffffffffffffffffffffffffffffffffffffffff1673ffffffffffffffffffffffffffffffffffffffff1681526020019081526020016000205482111561049157600080fd5b6104e2826000808773ffffffffffffffffffffffffffffffffffffffff1673ffffffffffffffffffffffffffffffffffffffff16815260200190815260200160002054610a2590919063ffffffff16565b6000808673ffffffffffffffffffffffffffffffffffffffff1673ffffffffffffffffffffffffffffffffffffffff168152602001908152602001600020819055506105b382600160008773ffffffffffffffffffffffffffffffffffffffff1673ffffffffffffffffffffffffffffffffffffffff16815260200190815260200160002060003373ffffffffffffffffffffffffffffffffffffffff1673ffffffffffffffffffffffffffffffffffffffff16815260200190815260200160002054610a2590919063ffffffff16565b600160008673ffffffffffffffffffffffffffffffffffffffff1673ffffffffffffffffffffffffffffffffffffffff16815260200190815260200160002060003373ffffffffffffffffffffffffffffffffffffffff1673ffffffffffffffffffffffffffffffffffffffff16815260200190815260200160002081905550610684826000808673ffffffffffffffffffffffffffffffffffffffff1673ffffffffffffffffffffffffffffffffffffffff16815260200190815260200160002054610a3c90919063ffffffff16565b6000808573ffffffffffffffffffffffffffffffffffffffff1673ffffffffffffffffffffffffffffffffffffffff168152602001908152602001600020819055508273ffffffffffffffffffffffffffffffffffffffff168473ffffffffffffffffffffffffffffffffffffffff167fddf252ad1be2c89b69c2b068fc378daa952ba7f163c4a11628f55a4df523b3ef846040516107239190610c3e565b60405180910390a3600190509392505050565b600281565b60008060008373ffffffffffffffffffffffffffffffffffffffff1673ffffffffffffffffffffffffffffffffffffffff168152602001908152602001600020549050919050565b6040518060400160405280600281526020017f504300000000000000000000000000000000000000000000000000000000000081525081565b60008060003373ffffffffffffffffffffffffffffffffffffffff1673ffffffffffffffffffffffffffffffffffffffff1681526020019081526020016000205482111561080957600080fd5b61085a826000803373ffffffffffffffffffffffffffffffffffffffff1673ffffffffffffffffffffffffffffffffffffffff16815260200190815260200160002054610a2590919063ffffffff16565b6000803373ffffffffffffffffffffffffffffffffffffffff1673ffffffffffffffffffffffffffffffffffffffff168152602001908152602001600020819055506108ed826000808673ffffffffffffffffffffffffffffffffffffffff1673ffffffffffffffffffffffffffffffffffffffff16815260200190815260200160002054610a3c90919063ffffffff16565b6000808573ffffffffffffffffffffffffffffffffffffffff1673ffffffffffffffffffffffffffffffffffffffff168152602001908152602001600020819055508273ffffffffffffffffffffffffffffffffffffffff163373ffffffffffffffffffffffffffffffffffffffff167fddf252ad1be2c89b69c2b068fc378daa952ba7f163c4a11628f55a4df523b3ef8460405161098c9190610c3e565b60405180910390a36001905092915050565b6000600160008473ffffffffffffffffffffffffffffffffffffffff1673ffffffffffffffffffffffffffffffffffffffff16815260200190815260200160002060008373ffffffffffffffffffffffffffffffffffffffff1673ffffffffffffffffffffffffffffffffffffffff16815260200190815260200160002054905092915050565b600082821115610a3157fe5b818303905092915050565b600080828401905083811015610a4e57fe5b8091505092915050565b600081359050610a6781610d29565b92915050565b600081359050610a7c81610d40565b92915050565b600060208284031215610a9457600080fd5b6000610aa284828501610a58565b91505092915050565b60008060408385031215610abe57600080fd5b6000610acc85828601610a58565b9250506020610add85828601610a58565b9150509250929050565b600080600060608486031215610afc57600080fd5b6000610b0a86828701610a58565b9350506020610b1b86828701610a58565b9250506040610b2c86828701610a6d565b9150509250925092565b60008060408385031215610b4957600080fd5b6000610b5785828601610a58565b9250506020610b6885828601610a6d565b9150509250929050565b600060208284031215610b8457600080fd5b6000610b9284828501610a6d565b91505092915050565b610ba481610ca2565b82525050565b6000610bb582610c74565b610bbf8185610c7f565b9350610bcf818560208601610ce5565b610bd881610d18565b840191505092915050565b610bec81610cce565b82525050565b610bfb81610cd8565b82525050565b6000602082019050610c166000830184610b9b565b92915050565b60006020820190508181036000830152610c368184610baa565b905092915050565b6000602082019050610c536000830184610be3565b92915050565b6000602082019050610c6e6000830184610bf2565b92915050565b600081519050919050565b600082825260208201905092915050565b6000610c9b82610cae565b9050919050565b60008115159050919050565b600073ffffffffffffffffffffffffffffffffffffffff82169050919050565b6000819050919050565b600060ff82169050919050565b60005b83811015610d03578082015181840152602081019050610ce8565b83811115610d12576000848401525b50505050565b6000601f19601f8301169050919050565b610d3281610c90565b8114610d3d57600080fd5b50565b610d4981610cce565b8114610d5457600080fd5b5056fea264697066735822122094b4c5ff13e7eaecfd883d502f77ae208a5e6c251124c84c45cd15e839b3ea7364736f6c63430006080033",
					"opcodes": "PUSH1 0x80 PUSH1 0x40 MSTORE CALLVALUE DUP1 ISZERO PUSH2 0x10 JUMPI PUSH1 0x0 DUP1 REVERT JUMPDEST POP PUSH1 0x40 MLOAD PUSH2 0xE7F CODESIZE SUB DUP1 PUSH2 0xE7F DUP4 CODECOPY DUP2 DUP2 ADD PUSH1 0x40 MSTORE DUP2 ADD SWAP1 PUSH2 0x32 SWAP2 SWAP1 PUSH2 0x99 JUMP JUMPDEST DUP1 PUSH1 0x2 DUP2 SWAP1 SSTORE POP PUSH1 0x2 SLOAD PUSH1 0x0 DUP1 CALLER PUSH20 0xFFFFFFFFFFFFFFFFFFFFFFFFFFFFFFFFFFFFFFFF AND PUSH20 0xFFFFFFFFFFFFFFFFFFFFFFFFFFFFFFFFFFFFFFFF AND DUP2 MSTORE PUSH1 0x20 ADD SWAP1 DUP2 MSTORE PUSH1 0x20 ADD PUSH1 0x0 KECCAK256 DUP2 SWAP1 SSTORE POP POP PUSH2 0xE3 JUMP JUMPDEST PUSH1 0x0 DUP2 MLOAD SWAP1 POP PUSH2 0x93 DUP2 PUSH2 0xCC JUMP JUMPDEST SWAP3 SWAP2 POP POP JUMP JUMPDEST PUSH1 0x0 PUSH1 0x20 DUP3 DUP5 SUB SLT ISZERO PUSH2 0xAB JUMPI PUSH1 0x0 DUP1 REVERT JUMPDEST PUSH1 0x0 PUSH2 0xB9 DUP5 DUP3 DUP6 ADD PUSH2 0x84 JUMP JUMPDEST SWAP2 POP POP SWAP3 SWAP2 POP POP JUMP JUMPDEST PUSH1 0x0 DUP2 SWAP1 POP SWAP2 SWAP1 POP JUMP JUMPDEST PUSH2 0xD5 DUP2 PUSH2 0xC2 JUMP JUMPDEST DUP2 EQ PUSH2 0xE0 JUMPI PUSH1 0x0 DUP1 REVERT JUMPDEST POP JUMP JUMPDEST PUSH2 0xD8D DUP1 PUSH2 0xF2 PUSH1 0x0 CODECOPY PUSH1 0x0 RETURN INVALID PUSH1 0x80 PUSH1 0x40 MSTORE CALLVALUE DUP1 ISZERO PUSH2 0x10 JUMPI PUSH1 0x0 DUP1 REVERT JUMPDEST POP PUSH1 0x4 CALLDATASIZE LT PUSH2 0x9E JUMPI PUSH1 0x0 CALLDATALOAD PUSH1 0xE0 SHR DUP1 PUSH4 0x313CE567 GT PUSH2 0x66 JUMPI DUP1 PUSH4 0x313CE567 EQ PUSH2 0x15B JUMPI DUP1 PUSH4 0x70A08231 EQ PUSH2 0x179 JUMPI DUP1 PUSH4 0x95D89B41 EQ PUSH2 0x1A9 JUMPI DUP1 PUSH4 0xA9059CBB EQ PUSH2 0x1C7 JUMPI DUP1 PUSH4 0xDD62ED3E EQ PUSH2 0x1F7 JUMPI PUSH2 0x9E JUMP JUMPDEST DUP1 PUSH4 0x6FDDE03 EQ PUSH2 0xA3 JUMPI DUP1 PUSH4 0x95EA7B3 EQ PUSH2 0xC1 JUMPI DUP1 PUSH4 0x18160DDD EQ PUSH2 0xF1 JUMPI DUP1 PUSH4 0x1D43CC98 EQ PUSH2 0x10F JUMPI DUP1 PUSH4 0x23B872DD EQ PUSH2 0x12B JUMPI JUMPDEST PUSH1 0x0 DUP1 REVERT JUMPDEST PUSH2 0xAB PUSH2 0x227 JUMP JUMPDEST PUSH1 0x40 MLOAD PUSH2 0xB8 SWAP2 SWAP1 PUSH2 0xC1C JUMP JUMPDEST PUSH1 0x40 MLOAD DUP1 SWAP2 SUB SWAP1 RETURN JUMPDEST PUSH2 0xDB PUSH1 0x4 DUP1 CALLDATASIZE SUB DUP2 ADD SWAP1 PUSH2 0xD6 SWAP2 SWAP1 PUSH2 0xB36 JUMP JUMPDEST PUSH2 0x260 JUMP JUMPDEST PUSH1 0x40 MLOAD PUSH2 0xE8 SWAP2 SWAP1 PUSH2 0xC01 JUMP JUMPDEST PUSH1 0x40 MLOAD DUP1 SWAP2 SUB SWAP1 RETURN JUMPDEST PUSH2 0xF9 PUSH2 0x352 JUMP JUMPDEST PUSH1 0x40 MLOAD PUSH2 0x106 SWAP2 SWAP1 PUSH2 0xC3E JUMP JUMPDEST PUSH1 0x40 MLOAD DUP1 SWAP2 SUB SWAP1 RETURN JUMPDEST PUSH2 0x129 PUSH1 0x4 DUP1 CALLDATASIZE SUB DUP2 ADD SWAP1 PUSH2 0x124 SWAP2 SWAP1 PUSH2 0xB72 JUMP JUMPDEST PUSH2 0x35C JUMP JUMPDEST STOP JUMPDEST PUSH2 0x145 PUSH1 0x4 DUP1 CALLDATASIZE SUB DUP2 ADD SWAP1 PUSH2 0x140 SWAP2 SWAP1 PUSH2 0xAE7 JUMP JUMPDEST PUSH2 0x3BB JUMP JUMPDEST PUSH1 0x40 MLOAD PUSH2 0x152 SWAP2 SWAP1 PUSH2 0xC01 JUMP JUMPDEST PUSH1 0x40 MLOAD DUP1 SWAP2 SUB SWAP1 RETURN JUMPDEST PUSH2 0x163 PUSH2 0x736 JUMP JUMPDEST PUSH1 0x40 MLOAD PUSH2 0x170 SWAP2 SWAP1 PUSH2 0xC59 JUMP JUMPDEST PUSH1 0x40 MLOAD DUP1 SWAP2 SUB SWAP1 RETURN JUMPDEST PUSH2 0x193 PUSH1 0x4 DUP1 CALLDATASIZE SUB DUP2 ADD SWAP1 PUSH2 0x18E SWAP2 SWAP1 PUSH2 0xA82 JUMP JUMPDEST PUSH2 0x73B JUMP JUMPDEST PUSH1 0x40 MLOAD PUSH2 0x1A0 SWAP2 SWAP1 PUSH2 0xC3E JUMP JUMPDEST PUSH1 0x40 MLOAD DUP1 SWAP2 SUB SWAP1 RETURN JUMPDEST PUSH2 0x1B1 PUSH2 0x783 JUMP JUMPDEST PUSH1 0x40 MLOAD PUSH2 0x1BE SWAP2 SWAP1 PUSH2 0xC1C JUMP JUMPDEST PUSH1 0x40 MLOAD DUP1 SWAP2 SUB SWAP1 RETURN JUMPDEST PUSH2 0x1E1 PUSH1 0x4 DUP1 CALLDATASIZE SUB DUP2 ADD SWAP1 PUSH2 0x1DC SWAP2 SWAP1 PUSH2 0xB36 JUMP JUMPDEST PUSH2 0x7BC JUMP JUMPDEST PUSH1 0x40 MLOAD PUSH2 0x1EE SWAP2 SWAP1 PUSH2 0xC01 JUMP JUMPDEST PUSH1 0x40 MLOAD DUP1 SWAP2 SUB SWAP1 RETURN JUMPDEST PUSH2 0x211 PUSH1 0x4 DUP1 CALLDATASIZE SUB DUP2 ADD SWAP1 PUSH2 0x20C SWAP2 SWAP1 PUSH2 0xAAB JUMP JUMPDEST PUSH2 0x99E JUMP JUMPDEST PUSH1 0x40 MLOAD PUSH2 0x21E SWAP2 SWAP1 PUSH2 0xC3E JUMP JUMPDEST PUSH1 0x40 MLOAD DUP1 SWAP2 SUB SWAP1 RETURN JUMPDEST PUSH1 0x40 MLOAD DUP1 PUSH1 0x40 ADD PUSH1 0x40 MSTORE DUP1 PUSH1 0xF DUP2 MSTORE PUSH1 0x20 ADD PUSH32 0x4552433230507275656261436F696E0000000000000000000000000000000000 DUP2 MSTORE POP DUP2 JUMP JUMPDEST PUSH1 0x0 DUP2 PUSH1 0x1 PUSH1 0x0 CALLER PUSH20 0xFFFFFFFFFFFFFFFFFFFFFFFFFFFFFFFFFFFFFFFF AND PUSH20 0xFFFFFFFFFFFFFFFFFFFFFFFFFFFFFFFFFFFFFFFF AND DUP2 MSTORE PUSH1 0x20 ADD SWAP1 DUP2 MSTORE PUSH1 0x20 ADD PUSH1 0x0 KECCAK256 PUSH1 0x0 DUP6 PUSH20 0xFFFFFFFFFFFFFFFFFFFFFFFFFFFFFFFFFFFFFFFF AND PUSH20 0xFFFFFFFFFFFFFFFFFFFFFFFFFFFFFFFFFFFFFFFF AND DUP2 MSTORE PUSH1 0x20 ADD SWAP1 DUP2 MSTORE PUSH1 0x20 ADD PUSH1 0x0 KECCAK256 DUP2 SWAP1 SSTORE POP DUP3 PUSH20 0xFFFFFFFFFFFFFFFFFFFFFFFFFFFFFFFFFFFFFFFF AND CALLER PUSH20 0xFFFFFFFFFFFFFFFFFFFFFFFFFFFFFFFFFFFFFFFF AND PUSH32 0x8C5BE1E5EBEC7D5BD14F71427D1E84F3DD0314C0F7B2291E5B200AC8C7C3B925 DUP5 PUSH1 0x40 MLOAD PUSH2 0x340 SWAP2 SWAP1 PUSH2 0xC3E JUMP JUMPDEST PUSH1 0x40 MLOAD DUP1 SWAP2 SUB SWAP1 LOG3 PUSH1 0x1 SWAP1 POP SWAP3 SWAP2 POP POP JUMP JUMPDEST PUSH1 0x0 PUSH1 0x2 SLOAD SWAP1 POP SWAP1 JUMP JUMPDEST DUP1 PUSH1 0x2 PUSH1 0x0 DUP3 DUP3 SLOAD ADD SWAP3 POP POP DUP2 SWAP1 SSTORE POP DUP1 PUSH1 0x0 DUP1 CALLER PUSH20 0xFFFFFFFFFFFFFFFFFFFFFFFFFFFFFFFFFFFFFFFF AND PUSH20 0xFFFFFFFFFFFFFFFFFFFFFFFFFFFFFFFFFFFFFFFF AND DUP2 MSTORE PUSH1 0x20 ADD SWAP1 DUP2 MSTORE PUSH1 0x20 ADD PUSH1 0x0 KECCAK256 PUSH1 0x0 DUP3 DUP3 SLOAD ADD SWAP3 POP POP DUP2 SWAP1 SSTORE POP POP JUMP JUMPDEST PUSH1 0x0 DUP1 PUSH1 0x0 DUP6 PUSH20 0xFFFFFFFFFFFFFFFFFFFFFFFFFFFFFFFFFFFFFFFF AND PUSH20 0xFFFFFFFFFFFFFFFFFFFFFFFFFFFFFFFFFFFFFFFF AND DUP2 MSTORE PUSH1 0x20 ADD SWAP1 DUP2 MSTORE PUSH1 0x20 ADD PUSH1 0x0 KECCAK256 SLOAD DUP3 GT ISZERO PUSH2 0x408 JUMPI PUSH1 0x0 DUP1 REVERT JUMPDEST PUSH1 0x1 PUSH1 0x0 DUP6 PUSH20 0xFFFFFFFFFFFFFFFFFFFFFFFFFFFFFFFFFFFFFFFF AND PUSH20 0xFFFFFFFFFFFFFFFFFFFFFFFFFFFFFFFFFFFFFFFF AND DUP2 MSTORE PUSH1 0x20 ADD SWAP1 DUP2 MSTORE PUSH1 0x20 ADD PUSH1 0x0 KECCAK256 PUSH1 0x0 CALLER PUSH20 0xFFFFFFFFFFFFFFFFFFFFFFFFFFFFFFFFFFFFFFFF AND PUSH20 0xFFFFFFFFFFFFFFFFFFFFFFFFFFFFFFFFFFFFFFFF AND DUP2 MSTORE PUSH1 0x20 ADD SWAP1 DUP2 MSTORE PUSH1 0x20 ADD PUSH1 0x0 KECCAK256 SLOAD DUP3 GT ISZERO PUSH2 0x491 JUMPI PUSH1 0x0 DUP1 REVERT JUMPDEST PUSH2 0x4E2 DUP3 PUSH1 0x0 DUP1 DUP8 PUSH20 0xFFFFFFFFFFFFFFFFFFFFFFFFFFFFFFFFFFFFFFFF AND PUSH20 0xFFFFFFFFFFFFFFFFFFFFFFFFFFFFFFFFFFFFFFFF AND DUP2 MSTORE PUSH1 0x20 ADD SWAP1 DUP2 MSTORE PUSH1 0x20 ADD PUSH1 0x0 KECCAK256 SLOAD PUSH2 0xA25 SWAP1 SWAP2 SWAP1 PUSH4 0xFFFFFFFF AND JUMP JUMPDEST PUSH1 0x0 DUP1 DUP7 PUSH20 0xFFFFFFFFFFFFFFFFFFFFFFFFFFFFFFFFFFFFFFFF AND PUSH20 0xFFFFFFFFFFFFFFFFFFFFFFFFFFFFFFFFFFFFFFFF AND DUP2 MSTORE PUSH1 0x20 ADD SWAP1 DUP2 MSTORE PUSH1 0x20 ADD PUSH1 0x0 KECCAK256 DUP2 SWAP1 SSTORE POP PUSH2 0x5B3 DUP3 PUSH1 0x1 PUSH1 0x0 DUP8 PUSH20 0xFFFFFFFFFFFFFFFFFFFFFFFFFFFFFFFFFFFFFFFF AND PUSH20 0xFFFFFFFFFFFFFFFFFFFFFFFFFFFFFFFFFFFFFFFF AND DUP2 MSTORE PUSH1 0x20 ADD SWAP1 DUP2 MSTORE PUSH1 0x20 ADD PUSH1 0x0 KECCAK256 PUSH1 0x0 CALLER PUSH20 0xFFFFFFFFFFFFFFFFFFFFFFFFFFFFFFFFFFFFFFFF AND PUSH20 0xFFFFFFFFFFFFFFFFFFFFFFFFFFFFFFFFFFFFFFFF AND DUP2 MSTORE PUSH1 0x20 ADD SWAP1 DUP2 MSTORE PUSH1 0x20 ADD PUSH1 0x0 KECCAK256 SLOAD PUSH2 0xA25 SWAP1 SWAP2 SWAP1 PUSH4 0xFFFFFFFF AND JUMP JUMPDEST PUSH1 0x1 PUSH1 0x0 DUP7 PUSH20 0xFFFFFFFFFFFFFFFFFFFFFFFFFFFFFFFFFFFFFFFF AND PUSH20 0xFFFFFFFFFFFFFFFFFFFFFFFFFFFFFFFFFFFFFFFF AND DUP2 MSTORE PUSH1 0x20 ADD SWAP1 DUP2 MSTORE PUSH1 0x20 ADD PUSH1 0x0 KECCAK256 PUSH1 0x0 CALLER PUSH20 0xFFFFFFFFFFFFFFFFFFFFFFFFFFFFFFFFFFFFFFFF AND PUSH20 0xFFFFFFFFFFFFFFFFFFFFFFFFFFFFFFFFFFFFFFFF AND DUP2 MSTORE PUSH1 0x20 ADD SWAP1 DUP2 MSTORE PUSH1 0x20 ADD PUSH1 0x0 KECCAK256 DUP2 SWAP1 SSTORE POP PUSH2 0x684 DUP3 PUSH1 0x0 DUP1 DUP7 PUSH20 0xFFFFFFFFFFFFFFFFFFFFFFFFFFFFFFFFFFFFFFFF AND PUSH20 0xFFFFFFFFFFFFFFFFFFFFFFFFFFFFFFFFFFFFFFFF AND DUP2 MSTORE PUSH1 0x20 ADD SWAP1 DUP2 MSTORE PUSH1 0x20 ADD PUSH1 0x0 KECCAK256 SLOAD PUSH2 0xA3C SWAP1 SWAP2 SWAP1 PUSH4 0xFFFFFFFF AND JUMP JUMPDEST PUSH1 0x0 DUP1 DUP6 PUSH20 0xFFFFFFFFFFFFFFFFFFFFFFFFFFFFFFFFFFFFFFFF AND PUSH20 0xFFFFFFFFFFFFFFFFFFFFFFFFFFFFFFFFFFFFFFFF AND DUP2 MSTORE PUSH1 0x20 ADD SWAP1 DUP2 MSTORE PUSH1 0x20 ADD PUSH1 0x0 KECCAK256 DUP2 SWAP1 SSTORE POP DUP3 PUSH20 0xFFFFFFFFFFFFFFFFFFFFFFFFFFFFFFFFFFFFFFFF AND DUP5 PUSH20 0xFFFFFFFFFFFFFFFFFFFFFFFFFFFFFFFFFFFFFFFF AND PUSH32 0xDDF252AD1BE2C89B69C2B068FC378DAA952BA7F163C4A11628F55A4DF523B3EF DUP5 PUSH1 0x40 MLOAD PUSH2 0x723 SWAP2 SWAP1 PUSH2 0xC3E JUMP JUMPDEST PUSH1 0x40 MLOAD DUP1 SWAP2 SUB SWAP1 LOG3 PUSH1 0x1 SWAP1 POP SWAP4 SWAP3 POP POP POP JUMP JUMPDEST PUSH1 0x2 DUP2 JUMP JUMPDEST PUSH1 0x0 DUP1 PUSH1 0x0 DUP4 PUSH20 0xFFFFFFFFFFFFFFFFFFFFFFFFFFFFFFFFFFFFFFFF AND PUSH20 0xFFFFFFFFFFFFFFFFFFFFFFFFFFFFFFFFFFFFFFFF AND DUP2 MSTORE PUSH1 0x20 ADD SWAP1 DUP2 MSTORE PUSH1 0x20 ADD PUSH1 0x0 KECCAK256 SLOAD SWAP1 POP SWAP2 SWAP1 POP JUMP JUMPDEST PUSH1 0x40 MLOAD DUP1 PUSH1 0x40 ADD PUSH1 0x40 MSTORE DUP1 PUSH1 0x2 DUP2 MSTORE PUSH1 0x20 ADD PUSH32 0x5043000000000000000000000000000000000000000000000000000000000000 DUP2 MSTORE POP DUP2 JUMP JUMPDEST PUSH1 0x0 DUP1 PUSH1 0x0 CALLER PUSH20 0xFFFFFFFFFFFFFFFFFFFFFFFFFFFFFFFFFFFFFFFF AND PUSH20 0xFFFFFFFFFFFFFFFFFFFFFFFFFFFFFFFFFFFFFFFF AND DUP2 MSTORE PUSH1 0x20 ADD SWAP1 DUP2 MSTORE PUSH1 0x20 ADD PUSH1 0x0 KECCAK256 SLOAD DUP3 GT ISZERO PUSH2 0x809 JUMPI PUSH1 0x0 DUP1 REVERT JUMPDEST PUSH2 0x85A DUP3 PUSH1 0x0 DUP1 CALLER PUSH20 0xFFFFFFFFFFFFFFFFFFFFFFFFFFFFFFFFFFFFFFFF AND PUSH20 0xFFFFFFFFFFFFFFFFFFFFFFFFFFFFFFFFFFFFFFFF AND DUP2 MSTORE PUSH1 0x20 ADD SWAP1 DUP2 MSTORE PUSH1 0x20 ADD PUSH1 0x0 KECCAK256 SLOAD PUSH2 0xA25 SWAP1 SWAP2 SWAP1 PUSH4 0xFFFFFFFF AND JUMP JUMPDEST PUSH1 0x0 DUP1 CALLER PUSH20 0xFFFFFFFFFFFFFFFFFFFFFFFFFFFFFFFFFFFFFFFF AND PUSH20 0xFFFFFFFFFFFFFFFFFFFFFFFFFFFFFFFFFFFFFFFF AND DUP2 MSTORE PUSH1 0x20 ADD SWAP1 DUP2 MSTORE PUSH1 0x20 ADD PUSH1 0x0 KECCAK256 DUP2 SWAP1 SSTORE POP PUSH2 0x8ED DUP3 PUSH1 0x0 DUP1 DUP7 PUSH20 0xFFFFFFFFFFFFFFFFFFFFFFFFFFFFFFFFFFFFFFFF AND PUSH20 0xFFFFFFFFFFFFFFFFFFFFFFFFFFFFFFFFFFFFFFFF AND DUP2 MSTORE PUSH1 0x20 ADD SWAP1 DUP2 MSTORE PUSH1 0x20 ADD PUSH1 0x0 KECCAK256 SLOAD PUSH2 0xA3C SWAP1 SWAP2 SWAP1 PUSH4 0xFFFFFFFF AND JUMP JUMPDEST PUSH1 0x0 DUP1 DUP6 PUSH20 0xFFFFFFFFFFFFFFFFFFFFFFFFFFFFFFFFFFFFFFFF AND PUSH20 0xFFFFFFFFFFFFFFFFFFFFFFFFFFFFFFFFFFFFFFFF AND DUP2 MSTORE PUSH1 0x20 ADD SWAP1 DUP2 MSTORE PUSH1 0x20 ADD PUSH1 0x0 KECCAK256 DUP2 SWAP1 SSTORE POP DUP3 PUSH20 0xFFFFFFFFFFFFFFFFFFFFFFFFFFFFFFFFFFFFFFFF AND CALLER PUSH20 0xFFFFFFFFFFFFFFFFFFFFFFFFFFFFFFFFFFFFFFFF AND PUSH32 0xDDF252AD1BE2C89B69C2B068FC378DAA952BA7F163C4A11628F55A4DF523B3EF DUP5 PUSH1 0x40 MLOAD PUSH2 0x98C SWAP2 SWAP1 PUSH2 0xC3E JUMP JUMPDEST PUSH1 0x40 MLOAD DUP1 SWAP2 SUB SWAP1 LOG3 PUSH1 0x1 SWAP1 POP SWAP3 SWAP2 POP POP JUMP JUMPDEST PUSH1 0x0 PUSH1 0x1 PUSH1 0x0 DUP5 PUSH20 0xFFFFFFFFFFFFFFFFFFFFFFFFFFFFFFFFFFFFFFFF AND PUSH20 0xFFFFFFFFFFFFFFFFFFFFFFFFFFFFFFFFFFFFFFFF AND DUP2 MSTORE PUSH1 0x20 ADD SWAP1 DUP2 MSTORE PUSH1 0x20 ADD PUSH1 0x0 KECCAK256 PUSH1 0x0 DUP4 PUSH20 0xFFFFFFFFFFFFFFFFFFFFFFFFFFFFFFFFFFFFFFFF AND PUSH20 0xFFFFFFFFFFFFFFFFFFFFFFFFFFFFFFFFFFFFFFFF AND DUP2 MSTORE PUSH1 0x20 ADD SWAP1 DUP2 MSTORE PUSH1 0x20 ADD PUSH1 0x0 KECCAK256 SLOAD SWAP1 POP SWAP3 SWAP2 POP POP JUMP JUMPDEST PUSH1 0x0 DUP3 DUP3 GT ISZERO PUSH2 0xA31 JUMPI INVALID JUMPDEST DUP2 DUP4 SUB SWAP1 POP SWAP3 SWAP2 POP POP JUMP JUMPDEST PUSH1 0x0 DUP1 DUP3 DUP5 ADD SWAP1 POP DUP4 DUP2 LT ISZERO PUSH2 0xA4E JUMPI INVALID JUMPDEST DUP1 SWAP2 POP POP SWAP3 SWAP2 POP POP JUMP JUMPDEST PUSH1 0x0 DUP2 CALLDATALOAD SWAP1 POP PUSH2 0xA67 DUP2 PUSH2 0xD29 JUMP JUMPDEST SWAP3 SWAP2 POP POP JUMP JUMPDEST PUSH1 0x0 DUP2 CALLDATALOAD SWAP1 POP PUSH2 0xA7C DUP2 PUSH2 0xD40 JUMP JUMPDEST SWAP3 SWAP2 POP POP JUMP JUMPDEST PUSH1 0x0 PUSH1 0x20 DUP3 DUP5 SUB SLT ISZERO PUSH2 0xA94 JUMPI PUSH1 0x0 DUP1 REVERT JUMPDEST PUSH1 0x0 PUSH2 0xAA2 DUP5 DUP3 DUP6 ADD PUSH2 0xA58 JUMP JUMPDEST SWAP2 POP POP SWAP3 SWAP2 POP POP JUMP JUMPDEST PUSH1 0x0 DUP1 PUSH1 0x40 DUP4 DUP6 SUB SLT ISZERO PUSH2 0xABE JUMPI PUSH1 0x0 DUP1 REVERT JUMPDEST PUSH1 0x0 PUSH2 0xACC DUP6 DUP3 DUP7 ADD PUSH2 0xA58 JUMP JUMPDEST SWAP3 POP POP PUSH1 0x20 PUSH2 0xADD DUP6 DUP3 DUP7 ADD PUSH2 0xA58 JUMP JUMPDEST SWAP2 POP POP SWAP3 POP SWAP3 SWAP1 POP JUMP JUMPDEST PUSH1 0x0 DUP1 PUSH1 0x0 PUSH1 0x60 DUP5 DUP7 SUB SLT ISZERO PUSH2 0xAFC JUMPI PUSH1 0x0 DUP1 REVERT JUMPDEST PUSH1 0x0 PUSH2 0xB0A DUP7 DUP3 DUP8 ADD PUSH2 0xA58 JUMP JUMPDEST SWAP4 POP POP PUSH1 0x20 PUSH2 0xB1B DUP7 DUP3 DUP8 ADD PUSH2 0xA58 JUMP JUMPDEST SWAP3 POP POP PUSH1 0x40 PUSH2 0xB2C DUP7 DUP3 DUP8 ADD PUSH2 0xA6D JUMP JUMPDEST SWAP2 POP POP SWAP3 POP SWAP3 POP SWAP3 JUMP JUMPDEST PUSH1 0x0 DUP1 PUSH1 0x40 DUP4 DUP6 SUB SLT ISZERO PUSH2 0xB49 JUMPI PUSH1 0x0 DUP1 REVERT JUMPDEST PUSH1 0x0 PUSH2 0xB57 DUP6 DUP3 DUP7 ADD PUSH2 0xA58 JUMP JUMPDEST SWAP3 POP POP PUSH1 0x20 PUSH2 0xB68 DUP6 DUP3 DUP7 ADD PUSH2 0xA6D JUMP JUMPDEST SWAP2 POP POP SWAP3 POP SWAP3 SWAP1 POP JUMP JUMPDEST PUSH1 0x0 PUSH1 0x20 DUP3 DUP5 SUB SLT ISZERO PUSH2 0xB84 JUMPI PUSH1 0x0 DUP1 REVERT JUMPDEST PUSH1 0x0 PUSH2 0xB92 DUP5 DUP3 DUP6 ADD PUSH2 0xA6D JUMP JUMPDEST SWAP2 POP POP SWAP3 SWAP2 POP POP JUMP JUMPDEST PUSH2 0xBA4 DUP2 PUSH2 0xCA2 JUMP JUMPDEST DUP3 MSTORE POP POP JUMP JUMPDEST PUSH1 0x0 PUSH2 0xBB5 DUP3 PUSH2 0xC74 JUMP JUMPDEST PUSH2 0xBBF DUP2 DUP6 PUSH2 0xC7F JUMP JUMPDEST SWAP4 POP PUSH2 0xBCF DUP2 DUP6 PUSH1 0x20 DUP7 ADD PUSH2 0xCE5 JUMP JUMPDEST PUSH2 0xBD8 DUP2 PUSH2 0xD18 JUMP JUMPDEST DUP5 ADD SWAP2 POP POP SWAP3 SWAP2 POP POP JUMP JUMPDEST PUSH2 0xBEC DUP2 PUSH2 0xCCE JUMP JUMPDEST DUP3 MSTORE POP POP JUMP JUMPDEST PUSH2 0xBFB DUP2 PUSH2 0xCD8 JUMP JUMPDEST DUP3 MSTORE POP POP JUMP JUMPDEST PUSH1 0x0 PUSH1 0x20 DUP3 ADD SWAP1 POP PUSH2 0xC16 PUSH1 0x0 DUP4 ADD DUP5 PUSH2 0xB9B JUMP JUMPDEST SWAP3 SWAP2 POP POP JUMP JUMPDEST PUSH1 0x0 PUSH1 0x20 DUP3 ADD SWAP1 POP DUP2 DUP2 SUB PUSH1 0x0 DUP4 ADD MSTORE PUSH2 0xC36 DUP2 DUP5 PUSH2 0xBAA JUMP JUMPDEST SWAP1 POP SWAP3 SWAP2 POP POP JUMP JUMPDEST PUSH1 0x0 PUSH1 0x20 DUP3 ADD SWAP1 POP PUSH2 0xC53 PUSH1 0x0 DUP4 ADD DUP5 PUSH2 0xBE3 JUMP JUMPDEST SWAP3 SWAP2 POP POP JUMP JUMPDEST PUSH1 0x0 PUSH1 0x20 DUP3 ADD SWAP1 POP PUSH2 0xC6E PUSH1 0x0 DUP4 ADD DUP5 PUSH2 0xBF2 JUMP JUMPDEST SWAP3 SWAP2 POP POP JUMP JUMPDEST PUSH1 0x0 DUP2 MLOAD SWAP1 POP SWAP2 SWAP1 POP JUMP JUMPDEST PUSH1 0x0 DUP3 DUP3 MSTORE PUSH1 0x20 DUP3 ADD SWAP1 POP SWAP3 SWAP2 POP POP JUMP JUMPDEST PUSH1 0x0 PUSH2 0xC9B DUP3 PUSH2 0xCAE JUMP JUMPDEST SWAP1 POP SWAP2 SWAP1 POP JUMP JUMPDEST PUSH1 0x0 DUP2 ISZERO ISZERO SWAP1 POP SWAP2 SWAP1 POP JUMP JUMPDEST PUSH1 0x0 PUSH20 0xFFFFFFFFFFFFFFFFFFFFFFFFFFFFFFFFFFFFFFFF DUP3 AND SWAP1 POP SWAP2 SWAP1 POP JUMP JUMPDEST PUSH1 0x0 DUP2 SWAP1 POP SWAP2 SWAP1 POP JUMP JUMPDEST PUSH1 0x0 PUSH1 0xFF DUP3 AND SWAP1 POP SWAP2 SWAP1 POP JUMP JUMPDEST PUSH1 0x0 JUMPDEST DUP4 DUP2 LT ISZERO PUSH2 0xD03 JUMPI DUP1 DUP3 ADD MLOAD DUP2 DUP5 ADD MSTORE PUSH1 0x20 DUP2 ADD SWAP1 POP PUSH2 0xCE8 JUMP JUMPDEST DUP4 DUP2 GT ISZERO PUSH2 0xD12 JUMPI PUSH1 0x0 DUP5 DUP5 ADD MSTORE JUMPDEST POP POP POP POP JUMP JUMPDEST PUSH1 0x0 PUSH1 0x1F NOT PUSH1 0x1F DUP4 ADD AND SWAP1 POP SWAP2 SWAP1 POP JUMP JUMPDEST PUSH2 0xD32 DUP2 PUSH2 0xC90 JUMP JUMPDEST DUP2 EQ PUSH2 0xD3D JUMPI PUSH1 0x0 DUP1 REVERT JUMPDEST POP JUMP JUMPDEST PUSH2 0xD49 DUP2 PUSH2 0xCCE JUMP JUMPDEST DUP2 EQ PUSH2 0xD54 JUMPI PUSH1 0x0 DUP1 REVERT JUMPDEST POP JUMP INVALID LOG2 PUSH5 0x6970667358 0x22 SLT KECCAK256 SWAP5 0xB4 0xC5 SELFDESTRUCT SGT 0xE7 0xEA 0xEC REVERT DUP9 RETURNDATASIZE POP 0x2F PUSH24 0xAE208A5E6C251124C84C45CD15E839B3EA7364736F6C6343 STOP MOD ADDMOD STOP CALLER "
				},
				"gasEstimates": {
					"creation": {
						"codeDepositCost": "693800",
						"executionCost": "infinite",
						"totalCost": "infinite"
					},
					"external": {
						"allowance(address,address)": "infinite",
						"approve(address,uint256)": "infinite",
						"balanceOf(address)": "1563",
						"decimals()": "335",
						"increaseTotalSupply(uint256)": "42228",
						"name()": "infinite",
						"symbol()": "infinite",
						"totalSupply()": "1182",
						"transfer(address,uint256)": "infinite",
						"transferFrom(address,address,uint256)": "infinite"
					}
				},
				"methodIdentifiers": {
					"allowance(address,address)": "dd62ed3e",
					"approve(address,uint256)": "095ea7b3",
					"balanceOf(address)": "70a08231",
					"decimals()": "313ce567",
					"increaseTotalSupply(uint256)": "1d43cc98",
					"name()": "06fdde03",
					"symbol()": "95d89b41",
					"totalSupply()": "18160ddd",
					"transfer(address,uint256)": "a9059cbb",
					"transferFrom(address,address,uint256)": "23b872dd"
				}
			},
			"storageLayout": {
				"storage": [
					{
						"astId": 104,
						"contract": "DISNEY/ERC20.sol:ERC20Basic",
						"label": "balances",
						"offset": 0,
						"slot": "0",
						"type": "t_mapping(t_address,t_uint256)"
					},
					{
						"astId": 110,
						"contract": "DISNEY/ERC20.sol:ERC20Basic",
						"label": "allowed",
						"offset": 0,
						"slot": "1",
						"type": "t_mapping(t_address,t_mapping(t_address,t_uint256))"
					},
					{
						"astId": 112,
						"contract": "DISNEY/ERC20.sol:ERC20Basic",
						"label": "totalSupply_",
						"offset": 0,
						"slot": "2",
						"type": "t_uint256"
					}
				],
				"types": {
					"t_address": {
						"encoding": "inplace",
						"label": "address",
						"numberOfBytes": "20"
					},
					"t_mapping(t_address,t_mapping(t_address,t_uint256))": {
						"encoding": "mapping",
						"key": "t_address",
						"label": "mapping(address => mapping(address => uint256))",
						"numberOfBytes": "32",
						"value": "t_mapping(t_address,t_uint256)"
					},
					"t_mapping(t_address,t_uint256)": {
						"encoding": "mapping",
						"key": "t_address",
						"label": "mapping(address => uint256)",
						"numberOfBytes": "32",
						"value": "t_uint256"
					},
					"t_uint256": {
						"encoding": "inplace",
						"label": "uint256",
						"numberOfBytes": "32"
					}
				}
			},
			"userdoc": {
				"methods": {}
			}
		}
	}
}